S012000053706F7457656C6465722E7372656309
S11300000C942A020C943F130C9478130C940E1342
S11300100C949F0E0C94790E0C9447020C94470296
S11300200C9447020C9447020C9447020C94470228
S11300300C9447020C9413040C9447020C9447024A
S11300400C9449020C9447020C9447020C94470206
S11300500C9447020C9447020C9447020C944702F8
S11300600C9447020C9447020C9447020C944702E8
S11300702020667720312E30206332303134202026
S1130080002D4D6963726F2057656C642050726F48
S11300902D002044656661756C747320205365746B
S11300A02120006D56002053676C2050756C7365D9
S11300B02057656C6420002044626C2050756C737A
S11300C0652057656C64200020204D616E75616C5D
S11300D02057656C642020200053657474696E6732
S11300E02053617665642E2E2E00466F6F74202097
S11300F053770053657474696E672054726967207E
S1130100546F200053617665202020202020202079
S113011020202020002053676C2050756C736520CC
S113012057656C6420002044626C2050756C7365C4
S11301302057656C64200020204D616E75616C2031
S113014057656C6420202000466F6F742D737769A7
S1130150746368205472696700436F6E74616374DA
S11301602044657420547269670053657474696E21
S1130170672053617665642E2E2E00436F6E74697A
S11301806E756F7573204D6F64652100496E7661DD
S11301906C69642020666F720053617665202020AC
S11301A020202020202020202000466F6F742D73F3
S11301B07769746368205472696700436F6E746171
S11301C06374204465742054726967006D73006D14
S11301D073006D73006D7300536176696E6720560A
S11301E0616C7565202E2E2E0020204E6F204368F2
S11301F0616E67652E2E2E20200053657474696E1F
S1130200672044656661756C7421002020202020DD
S11302102020202020204578697420002053617616
S113022065202020202020457869742000505553F3
S113023048202020202020424F54480052657365F6
S1130240742044656661756C7473202D00474F2ECD
S11302502E2E2020202020566965770053657420B7
S113026057656C642054797065202D2000474F2E0B
S11302702E2E202020202056696577005365742097
S113028054726967204C6576656C202D00474F2EAB
S11302902E2E202020202056696577005365742077
S11302A0547269672054797065202D2000474F2EC1
S11302B02E2E202020202056696577005365742057
S11302C0547269672044656C6179202D00474F2E74
S11302D02E2E202020202056696577005365742037
S11302E04950204C656E677468202D2000474F2EBE
S11302F02E2E202020202056696577005365742017
S11303005031204C656E677468202D2000474F2EB5
S11303102E2E2020202020566965770053657420F6
S11303205030204C656E677468202D2000465300C1
S113033043540020325F502020202020202052559A
S11303404E20200020325F502020202020202057E3
S1130350414954200020325F502020204449534119
S1130360424C4544200020325F502020202020545D
S11303705249472744200020325F5020202020206B
S1130380202052445921200020315F502020202079
S113039020202052554E20200020315F5020202064
S11303A02020202057414954200020315F50202034
S11303B02044495341424C4544200020315F5020A1
S11303C020202020545249472744200020315F50E8
S11303D020202020202020524459212000204D415B
S11303E04E20202020202020574149542000204D19
S11303F0414E202020202020204449532E2000203C
S11304004D414E20202020202020524459212000FC
S1130410204D414E2020202020202052554E2020C7
S113042000545950453A20202020535441545553E8
S11304303A0020436865636B20427265616B6572A4
S11304402120004143204E6F742044657465637419
S113045065643A0011241FBECFEFD0E1DEBFCDBFEB
S113046011E0A0E0B1E0EAE8FEE202C005900D92DE
S1130470AC30B107D9F723E0ACE0B1E001C01D9284
S1130480AB36B207E1F70E940B070C9443170C94A8
S113049000001F920F920FB60F9211244F935F9397
S11304A06F937F938F939F93AF93BF938091270113
S11304B090912801A0912901B0912A010196A11DD2
S11304C0B11D8093270190932801A0932901B09333
S11304D02A0180911801882321F1809127019091AC
S11304E02801A0912901B0912A0140911401509151
S11304F015016091160170911701841B950BA60BD1
S1130500B70B40911001509111016091120170914B
S11305101301481759076A077B0718F4109218014A
S11305205E98BF91AF919F918F917F916F915F91F1
S11305304F910F900FBE0F901F90189510922601A7
S113054010922201E1E8F0E08081887F808310929C
S113055085001092840080ED92E09093890080934E
S1130560880088E08083B19A82E080936F009AEFDC
S113057095BD16BC9FE897BD84BDA99A80936E0073
S1130580089585E085BD81E0809319010895609107
S11305902701709128018091290190912A010895E1
S11305A02AE030E040E050E00E94BA1621153105FF
S11305B04105510549F020931001309311014093F6
S11305C01201509313010CC081E090E0A0E0B0E070
S11305D08093100190931101A0931201B093130121
S11305E081E0809318018091270190912801A091C6
S11305F02901B0912A018093140190931501A093CD
S11306001601B09317015E9A08950F931F93CF9329
S1130610DF93FC0186818093220180912201811164
S11306203BC087818093230100811181C2E3D0E024
S1130630C801BE010E94A61670931D0160931C019F
S113064024813581200F311FC901BE010E94A616E5
S1130650709321016093200182819381820F931F03
S1130660BE010E94A61670931F0160931E01109292
S11306702501109224010E94A316882369F081E0C9
S11306808093260110921B0110921A01DF91CF91E1
S11306901F910F910C94F005DF91CF911F910F9151
S11306A0089580911A0190911B0190930F018093FA
S11306B00E0140912301423009F06FC08091220164
S11306C0813041F118F08230B9F15CC00E94AD1361
S11306D081115F9A80911A0190911B0120910C0164
S11306E030910D01820F931F20910E0130910F0163
S11306F0821B930B90930D0180930C0120911C019C
S113070030911D01280F391F3093250120932401B6
S113071081E035C05F988091200190912101209162
S11307200C0130910D01820F931F9093250180934A
S113073024014093220131C00E94AD1381115F9ABC
S113074080911A0190911B0120910C0130910D01AF
S1130750820F931F20910E0130910F01821B930B86
S113076090930D0180930C0120911E0130911F0183
S1130770280F391F309325012093240183E08093AF
S113078022010BC08FEF9FEF9093250180932401EA
S11307905F981092220110922601809123018130EA
S11307A0A9F580912201811126C00E94AD13811107
S11307B05F9A80911A0190911B0120910C01309154
S11307C00D01820F931F20910E0130910F01821BA6
S11307D0930B90930D0180930C0120911C01309197
S11307E01D01280F391F309325012093240181E036
S11307F0809322010BC08FEF9FEF9093250180938C
S113080024015F9810922201109226018091260102
S1130810811108C05F9885E08093220110920D0138
S113082010920C0108951F920F920FB60F9211248B
S11308302F933F934F935F936F937F938F939F93E4
S1130840AF93BF93EF93FF9380911A0190911B0193
S11308509C012F5F3F4F30931B0120931A0120917D
S11308602401309125018217930731F480912601E8
S1130870813011F40E945103FF91EF91BF91AF9128
S11308809F918F917F916F915F914F913F912F91A4
S11308900F900FBE0F901F901895CF93C82F809183
S11308A02201882341F080912201843021F080913B
S11308B02201853049F40E94A316882341F0C09395
S11308C0220181E090E005C08FEF9FEF02C080E03D
S11308D090E0CF910895809122010895109226010D
S11308E085E080932201E1E8F0E08081887F8083C5
S11308F05F98089518B817B81598169A8AE08A95DB
S1130900F1F7179A91E79A95F1F7000086B11798D5
S113091091E79A95F1F7000087FDF3CF8FEF87B940
S11309200895CF93DF931F92CDB7DEB789830E94DA
S11309307A0415981698898188B98AE08A95F1F71E
S1130940179AE1E7EA95F1F7000017980F90DF9105
S1130950CF910895CF93DF931F92CDB7DEB78983EC
S11309600E947A04159A1698898188B98AE08A9532
S1130970F1F7179AE1E7EA95F1F7000017980F905D
S1130980DF91CF910895613011F090E001C090E4BF
S113099020912F0130913001280F311D283231056B
S11309A034F020912F0130913001285204C020915D
S11309B02F0130913001280F822F890F80680C9409
S11309C09104EF92FF920F931F93CF93DF931F92A3
S11309D0CDB7DEB71FB7F894082F7C018E2D801B8E
S11309E0861750F4F701849169830E94AA04FFEFEB
S11309F0EF1AFF0A6981F2CF1FBF0F90DF91CF91E9
S1130A001F910F91FF90EF9008950F931F93CF9331
S1130A10DF93EC01162F0130A9F048F00230F1F415
S1130A2080912F0190913001840F911D12C080910B
S1130A302F01909130014097820F911D97FF10C0B4
S1130A4088960EC080912F01909130014096820FBC
S1130A50911D8832910524F0889702C080E090E0CF
S1130A60622F0E94C304612FCE01DF91CF911F91A9
S1130A700F910C94E104CF92DF92FF920F931F9396
S1130A80CF93DF931F92CDB7DEB7182F062F842F95
S1130A90622F99830E94C304F12EC12E9981D92E0D
S1130AA08C2D8F19801730F4F60181916F010E940B
S1130AB0AA04F6CF0F90DF91CF911F910F91FF9071
S1130AC0DF90CF900895CF93DF93D82FC0E0CD1758
S1130AD0D9F088E10E94910420912F0130913001D6
S1130AE0273231055CF420912F01309130012F5FC2
S1130AF03F4F3093300120932F0104C010923001F6
S1130B0010922F01CF5FE3CFDF91CF9108950F9320
S1130B101F93CF93DF93082F10E0C7E2D0E01017A4
S1130B20D9F08CE10E94910420912F013091300181
S1130B30121613065CF420912F01309130012150DC
S1130B4031093093300120932F0104C0D093300138
S1130B50C0932F011F5FE3CFDF91CF911F910F91BE
S1130B60089582958F7080932E0110922D018091AB
S1130B702D018031A0F481E00E94870580912E012F
S1130B80882339F0E6E6FEE03197F1F70000815062
S1130B90F7CF80912D018F5F80932D01E8CF0895C9
S1130BA082958F7080932C0110922B0180912B01E0
S1130BB08031A0F481E00E94630580912C01882398
S1130BC039F0E6E6FEE03197F1F700008150F7CF07
S1130BD080912B018F5F80932B01E8CF08950895B6
S1130BE081E00E9491041092300110922F01089527
S1130BF080E18093310184E0809332010D9A0F9A51
S1130C000E9A8FEF87B9179A86E69EE00197F1F75F
S1130C10000017988FEF9FE80197F1F700C00000DC
S1130C20179A86E69EE00197F1F7000017988CEC7E
S1130C309CE10197F1F700C00000179A86E69EE058
S1130C400197F1F7000017988CEC9CE10197F1F7FC
S1130C5000C0000088E30E94910486E00E94910491
S1130C608091320188600E94910480E00E94AA046D
S1130C700C94F0058FE090E00E9405178F3F2FEF52
S1130C80920711F48CEA9DE09093600380935F03D4
S1130C908DE090E00E9405178F3F2FEF920711F42B
S1130CA08AEF90E090936203809361038BE090E07D
S1130CB00E9405178F3F2FEF920711F48CE291E009
S1130CC0909364038093630389E090E00E94051786
S1130CD08F3F2FEF920711F484E690E09093660320
S1130CE08093650387E090E00E9405178F3F2FEF04
S1130CF0920711F488EE93E090936803809367035E
S1130D0085E090E00E9405178F3F2FEF920719F0BE
S1130D108093690302C01092690383E090E00E940B
S1130D2005178F3F2FEF920789F080936A03811193
S1130D300FC080916903882359F01092690360E021
S1130D4070E085E090E00E941D1702C010926A03D3
S1130D5081E090E00E9405178F3F2FEF920711F476
S1130D6088E893E1909334018093330180E090E02C
S1130D700E94FD1680935E03089584B1806B84B94C
S1130D8026982E9A8CE58CBD8DB581608DBD0E9410
S1130D909E020E943F0F0E94F80581B1877E81B9AF
S1130DA082B1886182B984B18C7F84B985B1836052
S1130DB085B952985A9A53985B9A22982A9A5F98BE
S1130DC0579A5E98569A5C98549A80917E008360F4
S1130DD080937E000E94C1020E943A062C9A249AB3
S1130DE085B185B984B184B92C9880E18EBD0DB4E8
S1130DF007FEFDCF1EBC0DB407FEFDCF2C9A0E944A
S1130E00EB080E94D61364E670E080E090E00E9454
S1130E10D002789408950E94BD060E9442112FEFDB
S1130E208FEF96E8215080409040E1F700C0000029
S1130E3081E00E94D20E0E94F0050E9442110E949D
S1130E406414FBCF0F930E94F0058091690302E0C4
S1130E5020E040E060E1813019F489E591E002C0CE
S1130E6088E491E00E9405052FEF8FEF99E521506A
S1130E7080409040E1F700C000000E94F00580E04F
S1130E8090E00F9108950F930E94F00580916A03FA
S1130E90811108C002E020E040E060E188EC90E0CD
S1130EA00E94050580916A03823041F402E020E04B
S1130EB040E060E187EB90E00E94050580916A03C1
S1130EC0813041F402E020E040E060E186EA90E015
S1130ED00E9405052FEF8FEF99E521508040904047
S1130EE0E1F700C000000E94F00580E090E00F915F
S1130EF008950F93CF93DF9387E791E00E946B10DF
S1130F0080916903813019F4C1E0D0E002C0C0E0EF
S1130F10D1E087E791E00E94B90FDC17B1F002E05D
S1130F2020E040E060E1C13019F48BEB91E002C0B5
S1130F308AEA91E00E94050502E021E040E060E1D8
S1130F4089E991E00E940505DC2F809181018130BF
S1130F5051F490918301992311F0C827C17087E758
S1130F6091E00E946B1080917701813091F680911D
S1130F70780181508230F8F4D13011F580916A0300
S1130F8081111EC00E94F00502E020E042E06CE006
S1130F908CE891E00E94050521E040E060E18BE7E8
S1130FA091E00E9405052FEF8FEF99E521508040D5
S1130FB09040E1F71EC087E791E00E946B10A9CF33
S1130FC0D09369036D2F70E085E090E00E941D17B7
S1130FD00E94F00502E020E040E060E18AE691E052
S1130FE00E9405052FEF8FE796E121508040904045
S1130FF0E1F700C000000E94F00580E090E0DF917E
S1131000CF910F9108950F9387E791E00E946B10A1
S11310108AEF90E090936203809361038CE291E005
S1131020909364038093630384E690E09093660353
S11310308093650388EE93E090936803809367033D
S11310401092690310926A030E94F00502E020E006
S113105040E060E182E990E00E9405052FEF8FE710
S113106096E1215080409040E1F700C000000E94CA
S1131070F00580E090E00F9108950F93CF93DF93F4
S113108087E791E00E946B1080916A03823029F017
S1131090813029F0C0E0D2E004C0C2E001C0C1E068
S11310A0D0E087E791E00E94B90FDC1729F1C11164
S11310B007C002E020E040E060E187E391E011C076
S11310C0C23039F402E020E040E060E186E291E0E1
S11310D008C0C13041F402E020E040E060E185E175
S11310E091E00E94050502E021E040E060E184E037
S11310F091E00E940505DC2F80918101813089F403
S113110080918301882349F0CC2321F0C13021F45C
S1131110C2E003C0C1E001C0C0E087E791E00E94E3
S11311206B1080917701813009F0BBCF80917801F9
S11311308150823038F5D0936A03D11128C00E94BF
S1131140F00502E020E040E060E183EF90E00E94DF
S1131150050521E044E068E08AEE90E00E94050580
S11311602FEF8FEF99E5215080409040E1F700C0C8
S113117000001092690360E070E083E090E00E9458
S11311801D1705C087E791E00E946B108ACF60E0CD
S113119070E085E090E00E941D170E94F00502E0D7
S11311A020E040E060E189ED90E00E9405052FEF2A
S11311B08FE796E1215080409040E1F700C00000A5
S11311C00E94F00580E00E944D0480E090E0DF91F1
S11311D0CF910F9108952F923F924F925F926F9209
S11311E07F928F929F92AF92BF92CF92DF92EF92B3
S11311F0FF920F931F93CF93DF9300D01F92CDB72D
S1131200DEB788E4882E81E0982E4FEFD4014C930A
S113121099E4A92E91E0B92E82E0F50180832AE4B5
S1131220C22E21E0D22E8CE193E0D6018D939C93C3
S113123038E5E32E31E0F32E80E1F70180830CE4FE
S113124011E08DE093E0D8018D939C938EE0E9E565
S1131250F1E0808381E693E0AAE5B1E08D939C936D
S11312605EE4652E51E0752E87EE9CE0F3019183D8
S1131270808360E5462E61E0562E8DE39EE0D20128
S11312808D939C93C4014B830E94A90E80934701C4
S113129020900401312C0E94C702E0910401D10185
S11312A0AA57BE4F8E2F8295807F862B8C932090D9
S11312B045013090460181E08E0F80930401F0E0F7
S11312C0EA57FE4F8081F101858B80914701D4015B
S11312D08C9383E0F50180838CEF92E0D6018D93AB
S11312E09C9380E1F70180838DEE92E0D8018D9389
S11312F09C938EE0E9E5F1E0808383E693E0AAE540
S1131300B1E08D939C938DE09DE0F3019183808304
S113131087E49EE0D2018D939C93C4010E94A90EA0
S1131320809347012091040130E029833A830E948D
S1131330C702E091040129813A81D901AA57BE4F1D
S11313408E2F8295807F862B8C9381E08E0F8093E5
S11313500401F0E0EA57FE4F8081F101858B809112
S11313604701D4018C9384E0F50180838CED92E0F5
S1131370D6018D939C9380E1F70180838DEC92E0FC
S1131380D8018D939C938EE0E9E5F1E0808385E6B6
S113139093E0AAE5B1E08D939C9383E39DE0F30190
S11313A09183808381E59EE0D2018D939C93C40157
S11313B00E94A90E809347012091040130E0298303
S11313C03A830E94C702E091040129813A81D9013C
S11313D0AA57BE4F8E2F8295807F862B8C9381E0F7
S11313E08E0F80930401F0E0EA57FE4F8081F101F3
S11313F0858B80914701D4018C9385E0F50180832E
S11314008CEB92E0D6018D939C9380E1F70180836D
S11314108DEA92E0D8018D939C938EE0E9E5F1E0AA
S11314208083E7E6F3E0AAE5B1E0ED93FC9389E578
S11314309DE0D3018D939C938BE59EE0F201918313
S11314408083C4010E94A90E809347012091040166
S113145030E029833A830E94C702E0910401298184
S11314603A81D901AA57BE4F8E2F8295807F862B51
S11314708C9381E08E0F80930401F0E0EA57FE4FD5
S11314808081D10155968C9380914701F40180832A
S113149086E0D5018C938CE992E0F60191838083F8
S11314A0E0E1D701EC938DE892E0D8018D939C9311
S11314B08EE0E9E5F1E08083E7E6F3E0AAE5B1E058
S11314C0ED93FC9389E797E0D3018D939C9382E29B
S11314D097E0F20191838083C4010E94A90E809356
S11314E047012091040130E029833A830E94C70216
S11314F0E091040129813A81D901AA57BE4F8E2F68
S11315008295807F862B8C9381E08E0F80930401DB
S1131510F0E0EA57FE4F8081D10155968C9380917B
S11315204701F401808387E0D5018C938CE792E036
S1131530F60191838083E0E1D701EC938DE692E09C
S1131540D8018D939C938EE0E9E5F1E080838EE5EC
S113155093E0AAE5B1E08D939C938FE79DE0F301BE
S11315609183808385E69EE0D2018D939C93C40190
S11315700E94A90E809347012091040130E0298341
S11315803A830E94C702E091040129813A81D9017A
S1131590AA57BE4F8E2F8295807F862B8C9381E035
S11315A08E0F80930401F0E0EA57FE4F8081F10131
S11315B0858B80914701D4018C9388E0F501808369
S11315C08CE592E0D6018D939C9380E1F7018083B2
S11315D08DE492E0D8018D939C938EE0E9E5F1E0EF
S11315E08083E7E6F3E0AAE5B1E0ED93FC938DE3B5
S11315F098E0D3018D939C9383E497E0F201918367
S11316008083C4010E94A90E8093470120910401A4
S113161030E029833A830E94C702E09104012981C2
S11316203A81D901AA57BE4F8E2F8295807F862B8F
S11316308C9381E08E0F80930401F0E0EA57FE4F13
S11316408081D10155968C9380914701F401808368
S11316504B81D5014C938CE392E0F6019183808316
S1131660E0E1D701EC938DE292E0D8018D939C9355
S11316708EE0E9E5F1E08083D3011D921C92F20132
S11316801182108283E098E0909353018093520179
S1131690C4010E94A90E809347010091040110E047
S11316A00E94C702E0910401D801AA57BE4F8E2FB1
S11316B08295807F862B8C9381E08E0F809304012A
S11316C0F0E0EA57FE4F8081D10155968C9380E07B
S11316D090E00F900F900F90DF91CF911F910F9199
S11316E0FF90EF90DF90CF90BF90AF909F908F903E
S11316F07F906F905F904F903F902F9008953F920E
S11317004F925F926F927F928F929F92AF92BF920D
S1131710CF92DF92EF92FF920F931F93CF93DF93B9
S11317206C015B01EA014901DC018D919C918417F4
S1131730950728F0909344018093430104C050938B
S113174044014093430180914301909144010196E7
S113175090934201809341011092400110923F0105
S1131760E12CF12CE8E03E2E602E712C2401BFEF19
S11317704B1A5B0A80913F018111F1C087E791E028
S11317800E94B90F009143011091440180914101DD
S1131790909142010817190709F469C01093420196
S11317A00093410140E150E060E270E087E691E09F
S11317B00E94DC164AE06EE571E0C8010E94E3165F
S11317C0EEE5F1E001900020E9F73197EE55F140A4
S11317D08E2F8695332D381B432F4E0F232F622FC8
S11317E070E069597E4F822F831B90E0825A9E4F8E
S11317F0DC018C91DB018C932F5F2413F0CF1092CA
S11318003E0120933D01E0933C018091400102E0C0
S113181021E040E060E1882319F08CE192E002C00D
S11318208BE092E00E940505809143019091440170
S1131830C817D90738F461E087E00E94C3048EE139
S11318400E94AA0480914301909144018A159B054A
S113185038F461E088E00E94C3048DE10E94AA0488
S113186020E040E060E187E691E00E943B05809142
S11318708101813061F520918301222331F180912E
S1131880820181110CC080914301909144018A1519
S11318909B0510F4860D971D2150C9F70DC08130AA
S11318A0A1F48091430190914401C817D90710F421
S11318B0861997092150C9F79093440180934301F5
S11318C01092830181E08093400110928101809104
S11318D07701813009F04ECF80917801813049F44D
S11318E090914001992329F080933F01EE24E394E1
S11318F0F12C20917901213059F4F60180819181F4
S1131900909342018093410120933F01E12CF12CFB
S113191080917A01813001F50E94F00502E020E017
S113192040E060E18AEF91E00E940505FFEF2FE7B8
S113193086E1F15020408040E1F700C000000E94A1
S1131940F0059092440180924301509242014092EA
S1131950410181E080934001109277010BCF0E94F6
S1131960F00502E020E040E060E191E0E916F104D6
S113197019F089EE91E002C088ED91E00E9405051E
S1131980AFEFBFE7E6E1A150B040E040E1F700C0AF
S113199000000E94F0050E945B0F8091410190912C
S11319A04201D6018D939C93C701DF91CF911F9182
S11319B00F91FF90EF90DF90CF90BF90AF909F90EA
S11319C08F907F906F905F904F903F9008950F930A
S11319D080916103909162039093850180938401C7
S11319E002E32AEF30E042E350E060E177E284E88A
S11319F091E00E947F0B892B61F0609184017091CA
S1131A00850170936203609361038DE090E00E940E
S1131A101D1780E090E00F9108950F938091630368
S1131A2090916403909385018093840102E32CE2F6
S1131A3031E042E350E060E177E284E891E00E9423
S1131A407F0B892B61F06091840170918501709303
S1131A506403609363038BE090E00E941D1780E0B1
S1131A6090E00F9108950F93809165039091660320
S1131A70909385018093840102E324E630E042E3FD
S1131A8050E068EE73E084E891E00E947F0B892BBC
S1131A9061F0609184017091850170936603609395
S1131AA0650389E090E00E941D1780E090E00F91AB
S1131AB008950F9380916503909166039093850137
S1131AC08093840102E328EE33E042E350E068EEC1
S1131AD073E084E891E00E947F0B892B61F06091B0
S1131AE0840170918501709368036093670387E0B4
S1131AF090E00E941D1780E090E00F9108950F93ED
S1131B0080915E0320E1829FC0011124909385019E
S1131B108093840100E120E83CE040E450E060E090
S1131B2070E184E891E00E947F0B892BA1F1609120
S1131B30840170918501F4E076956795FA95E1F753
S1131B4060935E0380E090E00E940B1780915E0337
S1131B5020E1829FC00111249093380180933701C2
S1131B609C0122273F7030933601809335012C98D5
S1131B708091360180618EBD0DB407FEFDCF80914A
S1131B8035018EBD0DB407FEFDCF2C9A2B9A85E04E
S1131B908A95F1F72B9880E090E00F910895EF92E9
S1131BA0FF920F931F93CF93DF937B01142FFC01BC
S1131BB0C081D181D0938501C093840140E150E07C
S1131BC060E270E087E691E00E94DC164AE06EE590
S1131BD071E0CE010E94E316EEE5F1E001900020F1
S1131BE0E9F73197EE55F140E0933B01212F30E0C6
S1131BF02E0F311D35952795319521953109285F93
S1131C009E2F322F3E0F822FE82FF0E0E959FE4F2E
S1131C10A82FA21BB0E0A25ABE4F4C9140838F5F05
S1131C208313F2CF10923B0180933A0190933901D0
S1131C300E94F00520E040E060E187E691E00E9428
S1131C403B0540913A014F5F02E020E0612FC7015C
S1131C500E940505FFEF2FEF89E5F15020408040F9
S1131C60E1F700C000000E945B0FDF91CF911F914C
S1131C700F91FF90EF900C94F00542E065ED71E058
S1131C8081E693E00E94CF0D80E090E0089542E069
S1131C9062ED71E083E693E00E94CF0D80E090E076
S1131CA0089542E06FEC71E085E693E00E94CF0D69
S1131CB080E090E0089542E06CEC71E087E693E008
S1131CC00E94CF0D80E090E0089580915E0320E1B2
S1131CD0829FC0011124909385018093840142E086
S1131CE063EA70E084E891E00E94CF0D80E090E028
S1131CF008951F920F920FB60F9211248F939F9302
S1131D0083B183708093B00181E08093B3018091AB
S1131D10B10191E0980F9093B10190913B03981712
S1131D2038F48091B2018F5F8093B2011092B101B7
S1131D309F918F910F900FBE0F901F9018951F9237
S1131D400F920FB60F9211240F900FBE0F901F9099
S1131D501895CF93DF93FC018091080196E1899F48
S1131D60E0011124CF53DE4F96E1DE0101900D9284
S1131D709A95E1F78C8B91E0980F90930801DF918D
S1131D80CF910895803158F490910801891738F45F
S1131D9026E1829FC00111248F539E4F089580E055
S1131DA090E008958F3F41F090910801891720F445
S1131DB08093070190E008958FEF9FEF08950F93AC
S1131DC0CF93DF938F3F11F1909108018917F0F4BD
S1131DD096E1899FF0011124EF53FE4F80810E9408
S1131DE0C20EEC010097A9F000E020E040E0688911
S1131DF08A819B810E94050521E041E069898C81EB
S1131E009D810E94050581E090E005C08FEF9FEF62
S1131E1002C08EEF9FEFDF91CF910F9108950F9342
S1131E20CF93DF938F3F11F1909108018917F0F45C
S1131E3096E1899FF0011124EF53FE4F81810E94A6
S1131E40C20EEC010097A9F001E020E040E06889AF
S1131E508A819B810E94050521E041E069898C818A
S1131E609D810E94050581E090E005C08FEF9FEF02
S1131E7002C08EEF9FEFDF91CF910F91089582E022
S1131E8080933B03ECE6F0E0808182608083E8E6A7
S1131E90F0E08081826080830E94C7026059784E9E
S1131EA08F4F9F4F609337037093380380933903A8
S1131EB090933A0308950E94C7026059784E8F4F59
S1131EC09F4F609337037093380380933903909343
S1131ED03A0308958091090108950F931F930E9476
S1131EE0C7020091AC011091AD012091AE01309177
S1131EF0AF010617170728073907C0F58091AB0112
S1131F009091A901890F8093AB010E94F00560E0D4
S1131F108091AB010E94C3048FEF0E94AA049091A8
S1131F20AB0161E08FE0891B0E94C3048FEF0E9424
S1131F30AA048091AB018F3019F48FEF9FEF04C096
S1131F40811106C081E090E09093AA018093A901D9
S1131F500E94C7026B5F7F4F8F4F9F4F6093AC010E
S1131F607093AD018093AE019093AF011F910F91D7
S1131F700895CF92DF92EF92FF920F931F93CF9326
S1131F80DF93EC010E94C7026093A5017093A60140
S1131F908093A7019093A8012091B3012223A9F073
S1131FA01092B3012091B00120FF0FC02091B00125
S1131FB021FF03C021E02B8701C01B862091B201C1
S1131FC02C8721E02A871092B20140B148714D83D9
S1131FD05C81451709F475C00E811F8128853985F8
S1131FE06B017C01C01AD10AE20AF30A9701860147
S1131FF0C092A101D092A201E092A301F092A401A7
S11320006E837F8388879987583041F118F455236C
S113201059F057C05031D9F1583109F052C01982E2
S11320201A821B8218824DC01B82053011052105BE
S1132030310508F444C081E08B83083C1105210577
S11320403105E8F180E9C81681E0D806E104F1041D
S113205010F482E001C083E08B8331C01A82053022
S113206011052105310558F181E08A83083C1105E9
S11320702105310520F180E9C81681E0D806E10484
S1132080F10410F482E001C083E08A8318C019824D
S1132090053011052105310590F081E08983083C64
S11320A011052105310558F080E9C81681E0D806EC
S11320B0E104F10410F482E001C083E0898381E04B
S11320C088834C83DF91CF911F910F91FF90EF9004
S11320D0DF90CF900895FC0112861486108211823D
S11320E01282138208950F93CF93C82F0E946B041A
S11320F0809398010E94A016809397019091980173
S113210080919601981303C0CC2309F4B5C002E072
S113211020E040E060E181E294E00E9405058091C6
S11321206A0381112AC080919801843039F421E036
S113213040E060E180E194E00E940505809198010F
S113214081110FC00E94A31602E021E040E060E18B
S1132150882319F08FEF93E002C08EEE93E00E9483
S1132160050580919801853041F402E021E040E0CA
S113217060E18DED93E00E94050580916A03813052
S113218081F58091980181111FC00E94A3168823B4
S1132190A1F080919701882349F0833010F502E083
S11321A021E040E060E18BEB93E019C002E021E024
S11321B040E060E18CEC93E012C002E021E040E0FA
S11321C060E18AEA93E00BC002E021E040E060E1D4
S11321D0853019F489E993E002C088E893E00E940D
S11321E0050580916A03823081F5809198018111FF
S11321F01FC00E94A3168823A1F080919701882311
S113220049F0833010F502E021E040E060E186E629
S113221093E019C002E021E040E060E187E793E049
S113222012C002E021E040E060E185E593E00BC0EC
S113223002E021E040E060E1853019F484E493E0B9
S113224002C083E393E00E9405058091690302E0E4
S113225021E046E062E0813019F480E393E002C0BB
S11322608DE293E00E940505809198018093960188
S1132270CF910F910C945B0FCF910F91089581E052
S11322800C9473100F931F93809107019091060192
S113229098131092A001809306010E94C702009136
S11322A03703109138032091390330913A0306170C
S11322B017072807390768F483E00E94EF05109296
S11322C0090181E080939F011092A0010E946D0F8B
S11322D006C080E00E94EF0581E08093090184EB51
S11322E091E00E94B90F809107019FEF980F9E3FE4
S11322F008F037C191E090939F019091A001911152
S113230049C00E94C20E90939E0180939D010E9439
S1132310F005A091070116E11A9FD0011124AF53D3
S1132320BE4F02E020E040E050966C915097129628
S11323308D919C9113970E940505E09107011E9FC2
S1132340F0011124EF53FE4F21E041E061898481C3
S113235095810E940505E0919D01F0919E01818186
S11323608F3F39F061E088E00E94C3048EE70E9449
S1132370AA04E0919D01F0919E0180818F3F39F084
S113238061E087E00E94C3048FE70E94AA0481E011
S11323908093A0018091B401813009F06CC00E9447
S11323A0E3138091B501813071F4E0919D01F091C6
S11323B09E010680F781E02D309709F0099584EBA2
S11323C091E00E946B108091B601813071F4E0912C
S11323D09D01F0919E010084F185E02D309709F074
S11323E0099584EB91E00E946B108091B7018130D4
S11323F071F4E0919D01F0919E010284F385E02D3A
S1132400309709F0099584EB91E00E946B1080915C
S1132410B501823071F4E0919D01F0919E01048434
S1132420F585E02D309709F0099584EB91E00E9441
S11324306B108091B601823071F4E0919D01F091AE
S11324409E010684F785E02D309709F0099584EB09
S113245091E00E946B101092B4011092A0010E94AE
S1132460C7026093990170939A0180939B019093A2
S11324709C010E945B0F8091BE01882309F44CC02B
S11324808091C0018823B1F18091BF01811117C0EF
S1132490809107010E940F0F019759F488EC0E9464
S11324A0D005E0919D01F0919E0181810E94D20EA0
S11324B006C062E370E080E090E00E94D002809168
S11324C0BF018130B9F4809107010E94DF0E0197AA
S11324D059F488EC0E94B105E0919D01F0919E01B0
S11324E080810E94D20E06C062E370E080E090E03A
S11324F00E94D00284EB91E00E946B101092A00124
S11325000E94C7026093990170939A0180939B0182
S113251090939C010E945B0F0E94C7020091990155
S113252010919A0120919B0130919C01601B710BC9
S1132530820B930B6D3271408105910508F46BC0D9
S1132540809107018093050180E00E94D20E0E94D1
S11325503F1162E370E080E090E01F910F910C94D2
S1132560D0028F3F11F58091A00181111EC080918E
S113257009018823A9F00E94F00502E020E040E070
S113258060E180910201909103010E94050521E020
S113259040E060E180910001909101010E940505F5
S11325A081E08093A0010E94E313809107018111CF
S11325B032C080910901882339F00E94F21380917E
S11325C09F010E94731002C00E94E3138091BE0118
S11325D0811104C08091B4018823D9F084EB91E087
S11325E00E946B1080910501811101C081E08093EC
S11325F007010E94C7026093990170939A01809326
S11326009B0190939C010E94E3131092A0010E94ED
S11326105B0F10929F011F910F9108951F920F92CB
S11326200FB60F9211242F933F934F935F936F93A1
S11326307F938F939F93AF93BF93EF93FF931A99D5
S113264003C010920A010AC00E945B0F80915D03CF
S1132650882319F081E080930A01EA98FF91EF91B1
S1132660BF91AF919F918F917F916F915F914F91A6
S11326703F912F910F900FBE0F901F9018951F92AE
S11326800F920FB60F9211242F933F934F935F93A2
S11326906F937F938F939F93AF93BF93EF93FF9326
S11326A099B181E0809353031092540392FD03C0C7
S11326B01092520302C0809352030E94C702609397
S11326C04E0370934F038093500390935103FF91F3
S11326D0EF91BF91AF919F918F917F916F915F9196
S11326E04F913F912F910F900FBE0F901F9018950F
S11326F01F920F920FB60F9211242F933F934F9373
S11327005F936F937F938F939F93AF93BF93EF9355
S1132710FF934B9B03C010920A010EC00E945B0FF3
S113272080916903811107C080915D03882319F0AA
S113273081E080930A01E998FF91EF91BF91AF91F5
S11327409F918F917F916F915F914F913F912F91C5
S11327500F900FBE0F901F901895CF92DF92EF92BB
S1132760FF920E94C7026B017C018AE0C80ED11C53
S1132770E11CF11C80915303811107C00E94C70220
S1132780C616D706E806F906A8F7809153038823EE
S113279021F01092530381E004C081E0809354033C
S11327A080E0FF90EF90DF90CF900895E9E6F0E0AD
S11327B08081816380838DB387608DBB10925D03BC
S11327C010920A010895CF9380915D03882341F00C
S11327D0CFB7F8940E946E0410925D035C98CFBF4B
S11327E0CF9108958091610390916203C2978F3DC8
S11327F0964208F057C08091630390916403C29796
S11328008F3D964208F051C0809165039091660314
S1132810C297873B934008F04BC080916703909127
S11328206803C297873B934008F045C080916A03D0
S1132830833008F043C080915D03811142C04FB7DB
S1132840F89480915E0320E1829FC001112490934B
S11328503F0380933E039C0122273F7030933D0346
S113286080933C032C9880913D0380618EBD0DB410
S113287007FEFDCF80913C038EBD0DB407FEFDCF56
S11328802C9A2B9A85E08A95F1F72B9883E0809314
S11328905D03809181008560809381004FBF0E9419
S11328A03F110FC08FEF9FEF08958EEF9FEF0895B4
S11328B08DEF9FEF08958CEF9FEF08958BEF9FEFBF
S11328C0089581E090E008950F931F930E94C7023A
S11328D060934A0370934B0380934C0390934D038E
S11328E080910A01811117C080915B03811113C08B
S11328F080916903813039F480915D03882359F014
S11329005C9AEA9A08C0811106C080915D0388230D
S113291011F05C98E99A80910A01813009F0C7C0EE
S113292010916903112309F447C0113009F0BBC0A9
S113293080914903811121C00E943F118091670356
S1132940909168036AE070E00E94A61680914A03A1
S113295090914B03A0914C03B0914D03860F971FA8
S1132960A11DB11D8093450390934603A093470393
S1132970B0934803109349034DC01A9B54C040912F
S11329804A0350914B0360914C0370914D03809125
S1132990450390914603A0914703B09148038417DF
S11329A09507A607B70708F082C05C9882E0809379
S11329B00A011092490372C080914903811131C008
S11329C00E943F1180916A0300914A0310914B03C6
S11329D020914C0330914D03811105C00B5F1F4FB3
S11329E02F4F3F4F0CC080916703909168036AE0BA
S11329F070E00E94A616060F171F211D311D0093BB
S1132A00450310934603209347033093480381E022
S1132A108093490364E670E080E090E00E94D00275
S1132A2046C04B9B0DC01092490310920A0164E604
S1132A3070E080E090E00E94D0020E943F1137C015
S1132A4040914A0350914B0360914C0370914D03A4
S1132A508091450390914603A0914703B0914803A8
S1132A6084179507A607B70710F55C9882E0809352
S1132A700A011092490380914A0390914B03A0915B
S1132A804C03B0914D03C296A11DB11D8093450323
S1132A9090934603A0934703B093480362E370E026
S1132AA080E090E0BBCF10925D0310924903309117
S1132AB00A01323009F0A6C020916A03222321F0D2
S1132AC0233008F081C052C04B9942C080915D030D
S1132AD0882309F43FC040914A0350914B0360910D
S1132AE04C0370914D038091450390914603A0914E
S1132AF04703B091480384179507A607B707D8F48E
S1132B0065E070E080E090E00E94D00280914A038A
S1132B1090914B03A0914C03B0914D03C296A11D1B
S1132B20B11D8093450390934603A0934703B0934C
S1132B3048030E945B0F80915B03843091F00E94F4
S1132B40AD13882371F05F9A84E080935B0309C01E
S1132B500E94AD135F9885E080935B0383E08093CC
S1132B600A0180915B030E944D0434C0809161038B
S1132B70909162039093560380935503809163036D
S1132B809091640390935803809357038091650355
S1132B909091660390935A0380935903213009F06E
S1132BA0C9C020935C0310925B0380915D0388236A
S1132BB039F05C9885E593E00E9405030E945B0F61
S1132BC083E080930A0106C083E080930A0185E0D4
S1132BD080935B0380910A018330A1F480914A03BE
S1132BE090914B03A0914C03B0914D038C599F4F8E
S1132BF0AF4FBF4F8093410390934203A09343038D
S1132C00B093440380915B03882311F08530F9F479
S1132C100E946A0F81111BC085E080935B0383E0EF
S1132C2080930A0180914A0390914B03A0914C0335
S1132C30B0914D038C599F4FAF4FBF4F80934103C9
S1132C4090934203A0934303B0934403E99A809181
S1132C500A01833009F047C00E946B04853009F0F3
S1132C6042C080916903813021F45C9A1A9909C0A9
S1132C7005C0811108C04B9B04C081E080934003D0
S1132C8002C0109240032091400380914A03909126
S1132C904B03A0914C03B0914D0321110EC0AC0124
S1132CA0BD014C595F4F6F4F7F4F40934103509389
S1132CB04203609343037093440340914103509152
S1132CC042036091430370914403481759076A070C
S1132CD07B0748F410920A0110925B0380E00E9483
S1132CE04D040E943F1180915403882331F10E94C6
S1132CF0E31364E670E080E090E00E94D0020E945A
S1132D00F00502E020E040E060E183E494E00E940A
S1132D10050521E040E060E182E394E00E940505BE
S1132D20809154038111FCCF0E945B0F1F910F917E
S1132D300C94F21330935C0336CF1F910F910895D6
S1132D4080910A01089580915D030895AA1BBB1B1D
S1132D5051E107C0AA1FBB1FA617B70710F0A61B97
S1132D60B70B881F991F5A95A9F780959095BC01B8
S1132D70CD010895A1E21A2EAA1BBB1BFD010DC0B3
S1132D80AA1FBB1FEE1FFF1FA217B307E407F50717
S1132D9020F0A21BB30BE40BF50B661F771F881FF3
S1132DA0991F1A9469F760957095809590959B0189
S1132DB0AC01BD01CF010895DC0101C06D93415008
S1132DC05040E0F70895BB27FB015527AA27880F39
S1132DD0991FAA1FA41710F0A41B83955051B9F78B
S1132DE0A05DAA3308F0A95DA193009779F7B1110A
S1132DF0B1931192CB010C942317F999FECF92BD94
S1132E0081BDF89A992780B50895A8E1B0E042E021
S1132E1050E00C943517262FF999FECF92BD81BD51
S1132E20F89A019700B4021639F01FBA20BD0FB604
S1132E30F894FA9AF99A0FBE08950196272F0E94E2
S1132E400C170C940B17DC01FC01672F719177238D
S1132E50E1F7329704C07C916D9370836291AE1751
S1132E60BF07C8F30895DC01CB01FC01F999FECF3B
S1132E7006C0F2BDE1BDF89A319600B40D924150FE
S10D2E805040B8F70895F894FFCF0E
S10F2E8A700081000101FFFF0101030042
S9030000FC
