S012000053706F7457656C6465722E7372656309
S11300000C942A020C943D130C9476130C940C1348
S11300100C949D0E0C94770E0C9447020C9447029A
S11300200C9447020C9447020C9447020C94470228
S11300300C9447020C9413040C9447020C9447024A
S11300400C9449020C9447020C9447020C94470206
S11300500C9447020C9447020C9447020C944702F8
S11300600C9447020C9447020C9447020C944702E8
S11300702044656661756C74732020536574212077
S1130080006D56002053676C2050756C73652057C3
S1130090656C6420002044626C2050756C7365208C
S11300A057656C64200020204D616E75616C20578B
S11300B0656C642020200053657474696E67205356
S11300C0617665642E2E2E00466F6F742020537760
S11300D00053657474696E67205472696720546FA5
S11300E0200053617665202020202020202020201D
S11300F02020002053676C2050756C736520576571
S11301006C6420002044626C2050756C7365205729
S1130110656C64200020204D616E75616C2057650C
S11301206C6420202000466F6F742D7377697463AC
S113013068205472696700436F6E7461637420446D
S1130140657420547269670053657474696E67201E
S113015053617665642E2E2E00436F6E74696E753E
S11301606F7573204D6F64652100496E76616C690B
S1130170642020666F720053617665202020202061
S11301802020202020202000466F6F742D73776973
S1130190746368205472696700436F6E746163749A
S11301A0204465742054726967006D73006D730098
S11301B06D73006D7300536176696E672056616CD0
S11301C07565202E2E2E0020204E6F204368616E10
S11301D067652E2E2E20200053657474696E672087
S11301E044656661756C7421002020202020202045
S11301F020202020457869742000205361766520F2
S11302002020202020457869742000505553482030
S11302102020202020424F544800526573657420EA
S113022044656661756C7473202D00474F2E2E2E25
S11302302020202020566965770053657420576577
S11302406C642054797065202D2000474F2E2E2E8B
S1130250202020202056696577005365742054724D
S11302606967204C6576656C202D00474F2E2E2E35
S1130270202020202056696577005365742054722D
S113028069672054797065202D2000474F2E2E2E4B
S1130290202020202056696577005365742054720D
S11302A069672044656C6179202D00474F2E2E2EFE
S11302B0202020202056696577005365742049501A
S11302C0204C656E677468202D2000474F2E2E2E1B
S11302D02020202020566965770053657420503112
S11302E0204C656E677468202D2000474F2E2E2EFB
S11302F020202020205669657700536574205030F3
S1130300204C656E677468202D20004653004354CA
S11303100020325F502020202020202052554E20E3
S1130320200020325F5020202020202020574149E7
S113033054200020325F5020202044495341424C35
S11303404544200020325F50202020202054524970
S1130350472744200020325F5020202020202020E6
S113036052445921200020315F5020202020202099
S11303702052554E20200020315F50202020202084
S1130380202057414954200020315F502020204430
S1130390495341424C4544200020315F50202020E5
S11303A02020545249472744200020315F50202008
S11303B02020202020524459212000204D414E204D
S11303C0202020202020574149542000204D414E18
S11303D0202020202020204449532E2000204D415D
S11303E04E20202020202020524459212000204D3E
S11303F0414E2020202020202052554E2020005401
S11304005950453A202020205354415455533A0022
S113041020202020202076312E3020202020202053
S1130420002D4D6963726F2057656C642050726FA4
S11304302D0020436865636B20427265616B6572B1
S11304402120004143204E6F742044657465637419
S113045065643A0011241FBECFEFD0E1DEBFCDBFEB
S113046011E0A0E0B1E0E6E8FEE202C005900D92E2
S1130470A830B107D9F723E0A8E0B1E001C01D928C
S1130480A736B207E1F70E940B070C9441170C94AE
S113049000001F920F920FB60F9211244F935F9397
S11304A06F937F938F939F93AF93BF938091230117
S11304B090912401A0912501B09126010196A11DDE
S11304C0B11D8093230190932401A0932501B0933F
S11304D0260180911401882321F1809123019091B8
S11304E02401A0912501B091260140911001509161
S11304F011016091120170911301841B950BA60BDD
S1130500B70B40910C0150910D0160910E01709157
S11305100F01481759076A077B0718F41092140152
S11305205E98BF91AF919F918F917F916F915F91F1
S11305304F910F900FBE0F901F90189510922201AB
S113054010921E01E1E8F0E08081887F80831092A0
S113055085001092840080ED92E09093890080934E
S1130560880088E08083B19A82E080936F009AEFDC
S113057095BD16BC9FE897BD84BDA99A80936E0073
S1130580089585E085BD81E080931501089560910B
S113059023017091240180912501909126010895F1
S11305A02AE030E040E050E00E94B8162115310501
S11305B04105510549F020930C0130930D014093FE
S11305C00E0150930F010CC081E090E0A0E0B0E078
S11305D080930C0190930D01A0930E01B0930F0131
S11305E081E0809314018091230190912401A091D2
S11305F02501B09126018093100190931101A093DD
S11306001201B09313015E9A08950F931F93CF9331
S1130610DF93FC01868180931E0180911E0181116C
S11306203BC0878180931F0100811181C2E3D0E028
S1130630C801BE010E94A4167093190160931801A9
S113064024813581200F311FC901BE010E94A416E7
S113065070931D0160931C0182819381820F931F0B
S1130660BE010E94A41670931B0160931A0110929C
S11306702101109220010E94A116882369F081E0D3
S1130680809322011092170110921601DF91CF91ED
S11306901F910F910C94F005DF91CF911F910F9151
S11306A00895809116019091170190930B01809306
S11306B00A0140911F01423009F06FC080911E0170
S11306C0813041F118F08230B9F15CC00E94AB1363
S11306D081115F9A80911601909117012091080170
S11306E030910901820F931F20910A0130910B016F
S11306F0821B930B909309018093080120911801A8
S113070030911901280F391F3093210120932001C2
S113071081E035C05F9880911C0190911D0120916A
S1130720080130910901820F931F90932101809356
S1130730200140931E0131C00E94AB1381115F9AC6
S113074080911601909117012091080130910901BF
S1130750820F931F20910A0130910B01821B930B8E
S1130760909309018093080120911A0130911B0193
S1130770280F391F309321012093200183E08093B7
S11307801E010BC08FEF9FEF9093210180932001F6
S11307905F9810921E011092220180911F018130F6
S11307A0A9F580911E01811126C00E94AB1381110D
S11307B05F9A809116019091170120910801309160
S11307C00901820F931F20910A0130910B01821BB2
S11307D0930B9093090180930801209118013091A3
S11307E01901280F391F309321012093200181E042
S11307F080931E010BC08FEF9FEF90932101809394
S113080020015F9810921E01109222018091220112
S1130810811108C05F9885E080931E011092090140
S11308201092080108951F920F920FB60F9211248F
S11308302F933F934F935F936F937F938F939F93E4
S1130840AF93BF93EF93FF9380911601909117019B
S11308509C012F5F3F4F3093170120931601209185
S11308602001309121018217930731F480912201F4
S1130870813011F40E945103FF91EF91BF91AF9128
S11308809F918F917F916F915F914F913F912F91A4
S11308900F900FBE0F901F901895CF93C82F809183
S11308A01E01882341F080911E01843021F0809143
S11308B01E01853049F40E94A116882341F0C0939B
S11308C01E0181E090E005C08FEF9FEF02C080E041
S11308D090E0CF91089580911E0108951092220115
S11308E085E080931E01E1E8F0E08081887F8083C9
S11308F05F98089518B817B81598169A8AE08A95DB
S1130900F1F7179A91E79A95F1F7000086B11798D5
S113091091E79A95F1F7000087FDF3CF8FEF87B940
S11309200895CF93DF931F92CDB7DEB789830E94DA
S11309307A0415981698898188B98AE08A95F1F71E
S1130940179AE1E7EA95F1F7000017980F90DF9105
S1130950CF910895CF93DF931F92CDB7DEB78983EC
S11309600E947A04159A1698898188B98AE08A9532
S1130970F1F7179AE1E7EA95F1F7000017980F905D
S1130980DF91CF910895613011F090E001C090E4BF
S113099020912B0130912C01280F311D2832310573
S11309A034F020912B0130912C01285204C0209165
S11309B02B0130912C01280F822F890F80680C9411
S11309C09104EF92FF920F931F93CF93DF931F92A3
S11309D0CDB7DEB71FB7F894082F7C018E2D801B8E
S11309E0861750F4F701849169830E94AA04FFEFEB
S11309F0EF1AFF0A6981F2CF1FBF0F90DF91CF91E9
S1130A001F910F91FF90EF9008950F931F93CF9331
S1130A10DF93EC01162F0130A9F048F00230F1F415
S1130A2080912B0190912C01840F911D12C0809113
S1130A302B0190912C014097820F911D97FF10C0BC
S1130A4088960EC080912B0190912C014096820FC4
S1130A50911D8832910524F0889702C080E090E0CF
S1130A60622F0E94C304612FCE01DF91CF911F91A9
S1130A700F910C94E104CF92DF92FF920F931F9396
S1130A80CF93DF931F92CDB7DEB7182F062F842F95
S1130A90622F99830E94C304F12EC12E9981D92E0D
S1130AA08C2D8F19801730F4F60181916F010E940B
S1130AB0AA04F6CF0F90DF91CF911F910F91FF9071
S1130AC0DF90CF900895CF93DF93D82FC0E0CD1758
S1130AD0D9F088E10E94910420912B0130912C01DE
S1130AE0273231055CF420912B0130912C012F5FCA
S1130AF03F4F30932C0120932B0104C010922C0102
S1130B0010922B01CF5FE3CFDF91CF9108950F9324
S1130B101F93CF93DF93082F10E0C7E2D0E01017A4
S1130B20D9F08CE10E94910420912B0130912C0189
S1130B30121613065CF420912B0130912C012150E4
S1130B40310930932C0120932B0104C0D0932C0144
S1130B50C0932B011F5FE3CFDF91CF911F910F91C2
S1130B60089582958F7080932A01109229018091B3
S1130B7029018031A0F481E00E94870580912A0137
S1130B80882339F0E6E6FEE03197F1F70000815062
S1130B90F7CF809129018F5F80932901E8CF0895D1
S1130BA082958F70809328011092270180912701EC
S1130BB08031A0F481E00E9463058091280188239C
S1130BC039F0E6E6FEE03197F1F700008150F7CF07
S1130BD0809127018F5F80932701E8CF08950895BE
S1130BE081E00E94910410922C0110922B0108952F
S1130BF080E180932D0184E080932E010D9A0F9A59
S1130C000E9A8FEF87B9179A86E69EE00197F1F75F
S1130C10000017988FEF9FE80197F1F700C00000DC
S1130C20179A86E69EE00197F1F7000017988CEC7E
S1130C309CE10197F1F700C00000179A86E69EE058
S1130C400197F1F7000017988CEC9CE10197F1F7FC
S1130C5000C0000088E30E94910486E00E94910491
S1130C6080912E0188600E94910480E00E94AA0471
S1130C700C94F0058FE090E00E9403178F3F2FEF54
S1130C80920711F48CEA9DE090935C0380935B03DC
S1130C908DE090E00E9403178F3F2FEF920711F42D
S1130CA08AEF90E090935E0380935D038BE090E085
S1130CB00E9403178F3F2FEF920711F48CE291E00B
S1130CC09093600380935F0389E090E00E94031790
S1130CD08F3F2FEF920711F484E690E09093620324
S1130CE08093610387E090E00E9403178F3F2FEF0A
S1130CF0920711F484E690E0909364038093630375
S1130D0085E090E00E9403178F3F2FEF920719F0C0
S1130D108093650302C01092650383E090E00E9413
S1130D2003178F3F2FEF920789F080936603811199
S1130D300FC080916503882359F01092650360E029
S1130D4070E085E090E00E941B1702C010926603D9
S1130D5081E090E00E9403178F3F2FEF920711F478
S1130D6088E893E19093300180932F0180E090E034
S1130D700E94FB1680935A03089584B1806B84B952
S1130D8026982E9A8CE58CBD8DB581608DBD0E9410
S1130D909E020E943D0F0E94F80581B1877E81B9B1
S1130DA082B1886182B984B18C7F84B985B1836052
S1130DB085B952985A9A53985B9A22982A9A5F98BE
S1130DC0579A5E98569A5C98549A80917E008360F4
S1130DD080937E000E94C1020E943A062C9A249AB3
S1130DE085B185B984B184B92C9880E18EBD0DB4E8
S1130DF007FEFDCF1EBC0DB407FEFDCF2C9A0E944A
S1130E00E9080E94D41364E670E080E090E00E9458
S1130E10D002789408950E94BD060E9444112FEFD9
S1130E208FEF96E8215080409040E1F700C0000029
S1130E3081E00E94D00E0E94F0050E9444110E949D
S1130E406214FBCF0F930E94F0058091650302E0CA
S1130E5020E040E060E1813019F487E391E002C0D2
S1130E6086E291E00E9405052FEF8FEF99E521506E
S1130E7080409040E1F700C000000E94F00580E04F
S1130E8090E00F9108950F930E94F00580916603FE
S1130E90811108C002E020E040E060E186EA90E0D1
S1130EA00E94050580916603823041F402E020E04F
S1130EB040E060E185E990E00E94050580916603C9
S1130EC0813041F402E020E040E060E184E890E019
S1130ED00E9405052FEF8FEF99E521508040904047
S1130EE0E1F700C000000E94F00580E090E00F915F
S1130EF008950F93CF93DF9383E791E00E946910E5
S1130F0080916503813019F4C1E0D0E002C0C0E0F3
S1130F10D1E083E791E00E94B70FDC17B1F002E063
S1130F2020E040E060E1C13019F489E991E002C0B9
S1130F3088E891E00E94050502E021E040E060E1DC
S1130F4087E791E00E940505DC2F80917D018130C7
S1130F5051F490917F01992311F0C827C17083E760
S1130F6091E00E94691080917301813091F6809123
S1130F70740181508230F8F4D13011F58091660308
S1130F8081111EC00E94F00502E020E042E06CE006
S1130F908AE691E00E94050521E040E060E189E5F0
S1130FA091E00E9405052FEF8FEF99E521508040D5
S1130FB09040E1F71EC083E791E00E946910A9CF39
S1130FC0D09365036D2F70E085E090E00E941B17BD
S1130FD00E94F00502E020E040E060E188E491E056
S1130FE00E9405052FEF8FE796E121508040904045
S1130FF0E1F700C000000E94F00580E090E0DF917E
S1131000CF910F9108950F9383E791E00E946910A7
S11310108AEF90E090935E0380935D038CE291E00D
S11310209093600380935F0384E690E0909362035F
S11310308093610390936403809363031092650328
S1131040109266030E94F00502E020E040E060E1B7
S113105080E790E00E9405052FEF8FE796E121508D
S113106080409040E1F700C000000E94F00580E05D
S113107090E00F9108950F93CF93DF9383E791E06E
S11310800E94691080916603823029F0813029F032
S1131090C0E0D2E004C0C2E001C0C1E0D0E083E718
S11310A091E00E94B70FDC1729F1C11107C002E0DB
S11310B020E040E060E185E191E011C0C23039F404
S11310C002E020E040E060E184E091E008C0C1304B
S11310D041F402E020E040E060E183EF90E00E9410
S11310E0050502E021E040E060E182EE90E00E942C
S11310F00505DC2F80917D01813089F480917F0189
S1131100882349F0CC2321F0C13021F4C2E003C08C
S1131110C1E001C0C0E083E791E00E9469108091C2
S11311207301813009F0BBCF80917401815082300A
S113113038F5D0936603D11128C00E94F00502E06F
S113114020E040E060E181ED90E00E94050521E0AF
S113115044E068E088EC90E00E9405052FEF8FEFF3
S113116099E5215080409040E1F700C000001092C2
S1131170650360E070E083E090E00E941B1705C007
S113118083E791E00E9469108ACF60E070E085E017
S113119090E00E941B170E94F00502E020E040E06E
S11311A060E187EB90E00E9405052FEF8FE796E161
S11311B0215080409040E1F700C000000E94F005FB
S11311C080E00E944D0480E090E0DF91CF910F9188
S11311D008952F923F924F925F926F927F928F92D7
S11311E09F92AF92BF92CF92DF92EF92FF920F93B2
S11311F01F93CF93DF9300D01F92CDB7DEB784E463
S1131200882E81E0982E4FEFD4014C9395E4A92EBB
S113121091E0B92E82E0F501808326E4C22E21E01C
S1131220D22E8AEF92E0D6018D939C9334E5E32E7F
S113123031E0F32E80E1F701808308E411E08BEEC6
S113124092E0D8018D939C938EE0E5E5F1E08083F4
S11312508DE593E0A6E5B1E08D939C935AE4652E69
S113126051E0752E85EE9CE0F301918380836CE45C
S1131270462E61E0562E8BE39EE0D2018D939C9323
S1131280C4014B830E94A70E809343012090000168
S1131290312C0E94C702E0910001D101AE57BE4F2C
S11312A08E2F8295807F862B8C93209041013090E5
S11312B0420181E08E0F80930001F0E0EE57FE4F73
S11312C08081F101858B80914301D4018C9383E06B
S11312D0F50180838AED92E0D6018D939C9380E1A1
S11312E0F70180838BEC92E0D8018D939C938EE080
S11312F0E5E5F1E080838FE593E0A6E5B1E08D9329
S11313009C938BE09DE0F3019183808385E49EE0D0
S1131310D2018D939C93C4010E94A70E8093430134
S11313202091000130E029833A830E94C702E091B2
S1131330000129813A81D901AE57BE4F8E2F829583
S1131340807F862B8C9381E08E0F80930001F0E0E8
S1131350EE57FE4F8081F101858B80914301D401CA
S11313608C9384E0F50180838AEB92E0D6018D931F
S11313709C9380E1F70180838BEA92E0D8018D93FE
S11313809C938EE0E5E5F1E0808381E693E0A6E5B9
S1131390B1E08D939C9381E39DE0F301918380837D
S11313A08FE49EE0D2018D939C93C4010E94A70E0A
S11313B0809343012091000130E029833A830E9405
S11313C0C702E091000129813A81D901AE57BE4F8D
S11313D08E2F8295807F862B8C9381E08E0F809355
S11313E00001F0E0EE57FE4F8081F101858B809182
S11313F04301D4018C9385E0F50180838AE992E06E
S1131400D6018D939C9380E1F70180838BE892E071
S1131410D8018D939C938EE0E5E5F1E08083E3E6CB
S1131420F3E0A6E5B1E0ED93FC9387E59DE0D301FD
S11314308D939C9389E59EE0F20191838083C4019E
S11314400E94A70E809343012091000130E029837C
S11314503A830E94C702E091000129813A81D901AF
S1131460AE57BE4F8E2F8295807F862B8C9381E062
S11314708E0F80930001F0E0EE57FE4F8081D10182
S113148055968C9380914301F401808386E0D501C5
S11314908C938AE792E0F60191838083E0E1D7019F
S11314A0EC938BE692E0D8018D939C938EE0E5E576
S11314B0F1E08083E3E6F3E0A6E5B1E0ED93FC938D
S11314C089E797E0D3018D939C9382E297E0F20140
S11314D091838083C4010E94A70E809343012091CD
S11314E0000130E029833A830E94C702E0910001A1
S11314F029813A81D901AE57BE4F8E2F8295807FC4
S1131500862B8C9381E08E0F80930001F0E0EE57E0
S1131510FE4F8081D10155968C9380914301F40153
S1131520808387E0D5018C938AE592E0F60191836C
S11315308083E0E1D701EC938BE492E0D8018D93B2
S11315409C938EE0E5E5F1E080838AE593E0A6E5EF
S1131550B1E08D939C938DE79DE0F30191838083AB
S113156083E69EE0D2018D939C93C4010E94A70E52
S1131570809343012091000130E029833A830E9443
S1131580C702E091000129813A81D901AE57BE4FCB
S11315908E2F8295807F862B8C9381E08E0F809393
S11315A00001F0E0EE57FE4F8081F101858B8091C0
S11315B04301D4018C9388E0F50180838AE392E0AF
S11315C0D6018D939C9380E1F70180838BE292E0B6
S11315D0D8018D939C938EE0E5E5F1E08083E3E60A
S11315E0F3E0A6E5B1E0ED93FC938BE398E0D3013F
S11315F08D939C9383E497E0F20191838083C401EB
S11316000E94A70E809343012091000130E02983BA
S11316103A830E94C702E091000129813A81D901ED
S1131620AE57BE4F8E2F8295807F862B8C9381E0A0
S11316308E0F80930001F0E0EE57FE4F8081D101C0
S113164055968C9380914301F40180834B81D5019D
S11316504C938AE192E0F60191838083E0E1D70123
S1131660EC938BE092E0D8018D939C938EE0E5E5BA
S1131670F1E08083D3011D921C92F2011182108249
S113168083E098E090934F0180934E01C4010E943F
S1131690A70E809343010091000110E00E94C7024D
S11316A0E0910001D801AE57BE4F8E2F8295807F06
S11316B0862B8C9381E08E0F80930001F0E0EE572F
S11316C0FE4F8081D10155968C9380E090E00F907D
S11316D00F900F90DF91CF911F910F91FF90EF909A
S11316E0DF90CF90BF90AF909F908F907F906F903E
S11316F05F904F903F902F9008953F924F925F924A
S11317006F927F928F929F92AF92BF92CF92DF920D
S1131710EF92FF920F931F93CF93DF936C015B01C2
S1131720EA014901DC018D919C918417950728F009
S11317309093400180933F0104C050934001409333
S11317403F0180913F0190914001019690933E01A9
S113175080933D0110923C0110923B01E12CF12C4D
S1131760E8E03E2E602E712C2401BFEF4B1A5B0A79
S113177080913B018111F1C083E791E00E94B70F92
S113178000913F011091400180913D0190913E01F3
S11317900817190709F469C010933E0100933D012D
S11317A040E150E060E270E083E691E00E94DA16E6
S11317B04AE06AE571E0C8010E94E116EAE5F1E059
S11317C001900020E9F73197EA55F1408E2F869574
S11317D0332D381B432F4E0F232F622F70E06D598A
S11317E07E4F822F831B90E0865A9E4FDC018C91A2
S11317F0DB018C932F5F2413F0CF10923A012093D6
S11318003901E093380180913C0102E021E040E09D
S113181060E1882319F08AEF91E002C089EE91E03B
S11318200E94050580913F0190914001C817D90796
S113183038F461E087E00E94C3048EE10E94AA04A8
S113184080913F01909140018A159B0538F461E035
S113185088E00E94C3048DE10E94AA0420E040E0D5
S113186060E183E691E00E943B0580917D01813037
S113187061F520917F01222331F180917E01811154
S11318800CC080913F01909140018A159B0510F492
S1131890860D971D2150C9F70DC08130A1F48091A8
S11318A03F0190914001C817D90710F48619970990
S11318B02150C9F79093400180933F0110927F011A
S11318C081E080933C0110927D018091730181300D
S11318D009F04ECF80917401813049F490913C011C
S11318E0992329F080933B01EE24E394F12C209179
S11318F07501213059F4F6018081918190933E0164
S113190080933D0120933B01E12CF12C80917601E1
S1131910813001F50E94F00502E020E040E060E142
S113192088ED91E00E940505FFEF2FE786E1F15075
S113193020408040E1F700C000000E94F005909232
S1131940400180923F0150923E0140923D0181E06E
S113195080933C01109273010BCF0E94F00502E0CA
S113196020E040E060E191E0E916F10419F087EC31
S113197091E002C086EB91E00E940505AFEFBFE75E
S1131980E6E1A150B040E040E1F700C000000E9451
S1131990F0050E94590F80913D0190913E01D601BE
S11319A08D939C93C701DF91CF911F910F91FF906D
S11319B0EF90DF90CF90BF90AF909F908F907F90EB
S11319C06F905F904F903F9008950F9380915D03C7
S11319D090915E03909381018093800102E32AEF4A
S11319E030E042E350E060E177E280E891E00E9479
S11319F07D0B892B61F0609180017091810170935E
S1131A005E0360935D038DE090E00E941B1780E00D
S1131A1090E00F9108950F9380915F03909160037C
S1131A20909381018093800102E32CE231E042E350
S1131A3050E060E177E280E891E00E947D0B892B21
S1131A4061F06091800170918101709360036093F3
S1131A505F038BE090E00E941B1780E090E00F9101
S1131A6008950F9380916103909162039093810193
S1131A708093800102E324E630E042E350E068EE24
S1131A8073E080E891E00E947D0B892B61F0609106
S1131A90800170918101709362036093610389E016
S1131AA090E00E941B1780E090E00F9108950F933F
S1131AB080916103909162039093810180938001EE
S1131AC002E324E630E042E350E068EE73E080E8AD
S1131AD091E00E947D0B892B61F0609180017091EF
S1131AE08101709364036093630387E090E00E9434
S1131AF01B1780E090E00F9108950F9380915A0393
S1131B0020E1829FC0011124909381018093800180
S1131B1000E120E038E040E450E060E070E180E87B
S1131B2091E00E947D0B892BA1F16091800170915D
S1131B308101F4E076956795FA95E1F760935A038D
S1131B4080E090E00E94091780915A0320E1829F6F
S1131B50C001112490933401809333019C01222706
S1131B603F7030933201809331012C98809132017F
S1131B7080618EBD0DB407FEFDCF809131018EBD15
S1131B800DB407FEFDCF2C9A2B9A85E08A95F1F7C8
S1131B902B9880E090E00F910895EF92FF920F93BD
S1131BA01F93CF93DF937B01142FFC01C081D1815C
S1131BB0D0938101C093800140E150E060E270E085
S1131BC083E691E00E94DA164AE06AE571E0CE010C
S1131BD00E94E116EAE5F1E001900020E9F731976F
S1131BE0EA55F140E0933701212F30E02E0F311DEB
S1131BF035952795319521953109285F9E2F322FF0
S1131C003E0F822FE82FF0E0ED59FE4FA82FA21BC4
S1131C10B0E0A65ABE4F4C9140838F5F8313F2CF3E
S1131C201092370180933601909335010E94F0059C
S1131C3020E040E060E183E691E00E943B054091B2
S1131C4036014F5F02E020E0612FC7010E940505C5
S1131C50FFEF2FEF89E5F15020408040E1F700C00D
S1131C6000000E94590FDF91CF911F910F91FF90B7
S1131C70EF900C94F00542E063EB71E08DE593E0A6
S1131C800E94CD0D80E090E0089542E060EB71E0A9
S1131C908FE593E00E94CD0D80E090E0089542E04E
S1131CA06DEA71E081E693E00E94CD0D80E090E062
S1131CB0089542E06AEA71E083E693E00E94CD0D64
S1131CC080E090E0089580915A0320E1829FC00152
S1131CD01124909381018093800142E061E870E0D7
S1131CE080E891E00E94CD0D80E090E008951F927D
S1131CF00F920FB60F9211248F939F9383B1837029
S1131D008093AC0181E08093AF018091AD0191E0BB
S1131D10980F9093AD0190913703981738F4809100
S1131D20AE018F5F8093AE011092AD019F918F91B0
S1131D300F900FBE0F901F9018951F920F920FB621
S1131D400F9211240F900FBE0F901F901895CF93F0
S1131D50DF93FC018091040196E1899FE001112445
S1131D60C354DE4F96E1DE0101900D929A95E1F79E
S1131D708C8B91E0980F90930401DF91CF9108959B
S1131D80803158F490910401891738F426E1829F38
S1131D90C001112483549E4F089580E090E008957B
S1131DA08F3F41F090910401891720F4809303013F
S1131DB090E008958FEF9FEF08950F93CF93DF93F3
S1131DC08F3F11F1909104018917F0F496E1899FF6
S1131DD0F0011124E354FE4F80810E94C00EEC01F7
S1131DE00097A9F000E020E040E068898A819B81A7
S1131DF00E94050521E041E069898C819D810E9452
S1131E00050581E090E005C08FEF9FEF02C08EEFE3
S1131E109FEFDF91CF910F9108950F93CF93DF93AD
S1131E208F3F11F1909104018917F0F496E1899F95
S1131E30F0011124E354FE4F81810E94C00EEC0195
S1131E400097A9F001E020E040E068898A819B8145
S1131E500E94050521E041E069898C819D810E94F1
S1131E60050581E090E005C08FEF9FEF02C08EEF83
S1131E709FEFDF91CF910F91089582E08093370314
S1131E80ECE6F0E0808182608083E8E6F0E0808127
S1131E90826080830E94C7026059784E8F4F9F4FA3
S1131EA06093330370933403809335039093360324
S1131EB008950E94C7026059784E8F4F9F4F6093D8
S1131EC0330370933403809335039093360308955A
S1131ED08091050108950F931F930E94C7020091FA
S1131EE0A8011091A9012091AA013091AB01061714
S1131EF0170728073907C0F58091A7019091A5011C
S1131F00890F8093A7010E94F00560E08091A701EA
S1131F100E94C3048FEF0E94AA049091A70161E07C
S1131F208FE0891B0E94C3048FEF0E94AA04809152
S1131F30A7018F3019F48FEF9FEF04C0811106C001
S1131F4081E090E09093A6018093A5010E94C702CE
S1131F506B5F7F4F8F4F9F4F6093A8017093A901D0
S1131F608093AA019093AB011F910F910895CF9292
S1131F70DF92EF92FF920F931F93CF93DF93EC01C5
S1131F800E94C7026093A1017093A2018093A301F0
S1131F909093A4012091AF012223A9F01092AF01E4
S1131FA02091AC0120FF0FC02091AC0121FF03C0A0
S1131FB021E02B8701C01B862091AE012C8721E0F4
S1131FC02A871092AE0140B148714D835C81451758
S1131FD009F475C00E811F81288539856B017C0148
S1131FE0C01AD10AE20AF30A97018601C0929D0140
S1131FF0D0929E01E0929F01F092A0016E837F83B4
S113200088879987583041F118F4552359F057C0FF
S11320105031D9F1583109F052C019821A821B8209
S113202018824DC01B82053011052105310508F4C5
S113203044C081E08B83083C110521053105E8F19A
S113204080E9C81681E0D806E104F10410F482E0C6
S113205001C083E08B8331C01A820530110521054C
S1132060310558F181E08A83083C110521053105C9
S113207020F180E9C81681E0D806E104F10410F4E7
S113208082E001C083E08A8318C0198205301105FB
S11320902105310590F081E08983083C1105210573
S11320A0310558F080E9C81681E0D806E104F1044E
S11320B010F482E001C083E0898381E088834C834B
S11320C0DF91CF911F910F91FF90EF90DF90CF9010
S11320D00895FC01128614861082118212821382E2
S11320E008950F93CF93C82F0E946B04809394019B
S11320F00E949E1680939301909194018091920185
S1132100981303C0CC2309F4B9C002E020E040E0F6
S113211060E18FEF93E00E940505809166038111D1
S11321202AC080919401843039F421E040E060E1D8
S11321308EEE93E00E9405058091940181110FC0F9
S11321400E94A11602E021E040E060E1882319F03A
S11321508DED93E002C08CEC93E00E940505809124
S11321609401853041F402E021E040E060E18BEB32
S113217093E00E94050580916603813091F580917A
S11321809401882311F0CC23F9F00E94A11688232E
S1132190A1F080919301882349F0833010F502E087
S11321A021E040E060E189E993E019C002E021E028
S11321B040E060E18AEA93E012C002E021E040E0FE
S11321C060E188E893E00BC002E021E040E060E1D8
S11321D0853019F487E793E002C086E693E00E9415
S11321E0050580916603823091F5809194018823DE
S11321F011F0CC23F9F00E94A1168823A1F080915C
S11322009301882349F0833010F502E021E040E097
S113221060E184E493E019C002E021E040E060E181
S113222085E593E012C002E021E040E060E183E351
S113223093E00BC002E021E040E060E1853019F456
S113224082E293E002C081E193E00E94050580915F
S1132250650302E021E046E062E0813019F48EE09B
S113226093E002C08BE093E00E9405058091940105
S113227080939201CF910F910C94590FCF910F91AC
S1132280089581E00C9471100F931F9380910301C2
S113229090910201981310929C01809302010E9474
S11322A0C702009133031091340320913503309118
S11322B03603061717072807390768F483E00E94D6
S11322C0EF051092050181E080939B0110929C011F
S11322D00E946B0F06C080E00E94EF0581E08093AE
S11322E0050180EB91E00E94B70F809103019FEFFD
S11322F0980F9E3F08F037C191E090939B01909115
S11323009C01911149C00E94C00E90939A01809340
S113231099010E94F005A091030116E11A9FD001D2
S11323201124A354BE4F02E020E040E050966C918B
S1132330509712968D919C9113970E940505E091F8
S113234003011E9FF0011124E354FE4F21E041E0FC
S11323506189848195810E940505E0919901F0913C
S11323609A0181818F3F39F061E088E00E94C304C3
S11323708EE70E94AA04E0919901F0919A0180816C
S11323808F3F39F061E087E00E94C3048FE70E9429
S1132390AA0481E080939C018091B001813009F00E
S11323A06CC00E94E1138091B101813071F4E0911D
S11323B09901F0919A010680F781E02D309709F098
S11323C0099580EB91E00E9469108091B2018130FF
S11323D071F4E0919901F0919A010084F185E02D66
S11323E0309709F0099580EB91E00E946910809183
S11323F0B301813071F4E0919901F0919A01028462
S1132400F385E02D309709F0099580EB91E00E9467
S113241069108091B101823071F4E0919901F091D9
S11324209A010484F585E02D309709F0099580EB35
S113243091E00E9469108091B201823071F4E091C0
S11324409901F0919A010684F785E02D309709F0FF
S1132450099580EB91E00E9469101092B0011092EE
S11324609C010E94C702609395017093960180932A
S11324709701909398010E94590F8091BA01882383
S113248009F44CC08091BC018823B1F18091BB0157
S1132490811117C0809103010E940D0F019759F417
S11324A088EC0E94D005E0919901F0919A01818114
S11324B00E94D00E06C062E370E080E090E00E94CB
S11324C0D0028091BB018130B9F4809103010E9454
S11324D0DD0E019759F488EC0E94B105E091990151
S11324E0F0919A0180810E94D00E06C062E370E0F0
S11324F080E090E00E94D00280EB91E00E9469109D
S113250010929C010E94C7026093950170939601FA
S113251080939701909398010E94590F0E94C702DB
S113252000919501109196012091970130919801A5
S1132530601B710B820B930B6D3271408105910509
S113254008F467C0809103018093010180E00E9438
S1132550D00E0E94411162E370E080E090E01F9190
S11325600F910C94D0028F3FF1F480919C01811162
S11325701AC080910501882389F00E94F00502E0C9
S113258020E040E060E181E294E00E94050521E062
S113259040E060E180E194E00E94050581E08093E1
S11325A09C010E94E11380910301811132C080914A
S11325B00501882339F00E94F01380919B010E9449
S11325C0711002C00E94E1138091BA01811104C00C
S11325D08091B0018823D9F080EB91E00E946910CA
S11325E080910101811101C081E0809303010E9467
S11325F0C70260939501709396018093970190931D
S113260098010E94E11310929C010E94590F1092AC
S11326109B011F910F9108951F920F920FB60F9275
S113262011242F933F934F935F936F937F938F93D3
S11326309F93AF93BF93EF93FF931A9903C01092A4
S113264006010AC00E94590F80915903882319F08A
S113265081E080930601EA98FF91EF91BF91AF91D9
S11326609F918F917F916F915F914F913F912F91A6
S11326700F900FBE0F901F9018951F920F920FB6D8
S11326800F9211242F933F934F935F936F937F93F4
S11326908F939F93AF93BF93EF93FF9399B181E08F
S11326A080934F031092500392FD03C010924E0387
S11326B002C080934E030E94C70260934A03709342
S11326C04B0380934C0390934D03FF91EF91BF9183
S11326D0AF919F918F917F916F915F914F913F91B6
S11326E02F910F900FBE0F901F9018951F920F926D
S11326F00FB60F9211242F933F934F935F936F93D1
S11327007F938F939F93AF93BF93EF93FF934B9BD1
S113271003C0109206010EC00E94590F80916503F8
S1132720811107C080915903882319F081E08093B7
S11327300601E998FF91EF91BF91AF919F918F911D
S11327407F916F915F914F913F912F910F900FBEA9
S11327500F901F901895CF92DF92EF92FF920E94F4
S1132760C7026B017C018AE0C80ED11CE11CF11C7C
S113277080914F03811107C00E94C702C616D70675
S1132780E806F906A8F780914F03882321F01092F8
S11327904F0381E004C081E08093500380E0FF9008
S11327A0EF90DF90CF900895E9E6F0E080818163B7
S11327B080838DB387608DBB1092590310920601FC
S11327C00895CF9380915903882341F0CFB7F894AB
S11327D00E946E04109259035C98CFBFCF91089564
S11327E080915D0390915E03C2978F3D964208F0FD
S11327F057C080915F0390916003C2978F3D9642CA
S113280008F051C08091610390916203C297873BA5
S1132810934008F04BC08091630390916403C29786
S1132820873B934008F045C080916603833008F0ED
S113283043C080915903811142C04FB7F8948091ED
S11328405A0320E1829FC001112490933B0380939B
S11328503A039C0122273F70309339038093380355
S11328602C988091390380618EBD0DB407FEFDCF95
S1132870809138038EBD0DB407FEFDCF2C9A2B9AA0
S113288085E08A95F1F72B9883E080935903809132
S113289081008560809381004FBF0E9441110FC069
S11328A08FEF9FEF08958EEF9FEF08958DEF9FEFC9
S11328B008958CEF9FEF08958BEF9FEF089581E0CB
S11328C090E008950F931F930E94C70260934603FC
S11328D070934703809348039093490380910601C2
S11328E0811117C080915703811113C08091650332
S11328F0813039F480915903882359F05C9AEA9A1B
S113290008C0811106C080915903882311F05C9896
S1132910E99A80910601813009F0C7C010916503DE
S1132920112309F447C0113009F0BBC0809145035D
S1132930811121C00E94411180916303909164032D
S11329406AE070E00E94A4168091460390914703C8
S1132950A0914803B0914903860F971FA11DB11D93
S11329608093410390934203A0934303B0934403A1
S1132970109345034DC01A9B54C040914603509197
S113298047036091480370914903809141039091FA
S11329904203A0914303B091440384179507A6070B
S11329A0B70708F082C05C9882E080930601109219
S11329B0450372C080914503811131C00E944111C9
S11329C080916603009146031091470320914803C8
S11329D030914903811105C00B5F1F4F2F4F3F4FAB
S11329E00CC080916303909164036AE070E00E94DC
S11329F0A416060F171F211D311D009341031093C8
S1132A004203209343033093440381E080934503BE
S1132A1064E670E080E090E00E94D00246C04B9BE8
S1132A200DC0109245031092060164E670E080E048
S1132A3090E00E94D0020E94411137C040914603A9
S1132A405091470360914803709149038091410379
S1132A5090914203A0914303B091440384179507D6
S1132A60A607B70710F55C9882E0809306011092E0
S1132A7045038091460390914703A0914803B09188
S1132A804903C296A11DB11D809341039093420353
S1132A90A0934303B093440362E370E080E090E0CA
S1132AA0BBCF109259031092450330910601323086
S1132AB009F0A6C020916603222321F0233008F0F8
S1132AC081C052C04B9942C080915903882309F4B4
S1132AD03FC0409146035091470360914803709171
S1132AE049038091410390914203A0914303B09123
S1132AF0440384179507A607B707D8F465E070E088
S1132B0080E090E00E94D0028091460390914703B8
S1132B10A0914803B0914903C296A11DB11D8093B1
S1132B20410390934203A0934303B09344030E9450
S1132B30590F80915703843091F00E94AB1388237E
S1132B4071F05F9A84E08093570309C00E94AB132D
S1132B505F9885E08093570383E08093060180911A
S1132B6057030E944D0434C080915D0390915E032D
S1132B70909352038093510380915F03909160037B
S1132B809093540380935303809161039091620363
S1132B909093560380935503213009F0C9C02093C4
S1132BA058031092570380915903882339F05C9895
S1132BB081E593E00E9405030E94590F83E080930E
S1132BC0060106C083E08093060185E080935703E5
S1132BD0809106018330A1F48091460390914703CC
S1132BE0A0914803B09149038C599F4FAF4FBF4FF9
S1132BF080933D0390933E03A0933F03B09340031F
S1132C0080915703882311F08530F9F40E94680FEE
S1132C1081111BC085E08093570383E080930601F4
S1132C208091460390914703A0914803B0914903D2
S1132C308C599F4FAF4FBF4F80933D0390933E03FA
S1132C40A0933F03B0934003E99A80910601833037
S1132C5009F047C00E946B04853009F042C080919E
S1132C606503813021F45C9A1A9909C005C0811169
S1132C7008C04B9B04C081E080933C0302C01092C7
S1132C803C0320913C038091460390914703A0911B
S1132C904803B091490321110EC0AC01BD014C5948
S1132CA05F4F6F4F7F4F40933D0350933E036093BC
S1132CB03F037093400340913D0350913E03609164
S1132CC03F0370914003481759076A077B0748F48C
S1132CD0109206011092570380E00E944D040E9456
S1132CE0411180915003882331F10E94E11364E67D
S1132CF070E080E090E00E94D0020E94F00502E0C3
S1132D0020E040E060E183E494E00E94050521E0D6
S1132D1040E060E182E394E00E9405058091500365
S1132D208111FCCF0E94590F1F910F910C94F01345
S1132D303093580336CF1F910F9108958091060167
S1132D400895809159030895AA1BBB1B51E107C044
S1132D50AA1FBB1FA617B70710F0A61BB70B881F27
S1132D60991F5A95A9F780959095BC01CD010895B6
S1132D70A1E21A2EAA1BBB1BFD010DC0AA1FBB1F7B
S1132D80EE1FFF1FA217B307E407F50720F0A21BED
S1132D90B30BE40BF50B661F771F881F991F1A945A
S1132DA069F760957095809590959B01AC01BD0184
S1132DB0CF010895DC0101C06D9341505040E0F70C
S1132DC00895BB27FB015527AA27880F991FAA1F1F
S1132DD0A41710F0A41B83955051B9F7A05DAA3332
S1132DE008F0A95DA193009779F7B111B1931192FD
S1132DF0CB010C942117F999FECF92BD81BDF89AAD
S1132E00992780B50895A8E1B0E042E050E00C9421
S1132E103317262FF999FECF92BD81BDF89A0197F9
S1132E2000B4021639F01FBA20BD0FB6F894FA9A0E
S1132E30F99A0FBE08950196272F0E940A170C9441
S1132E400917DC01FC01672F71917723E1F73297B1
S1132E5004C07C916D9370836291AE17BF07C8F371
S1132E600895DC01CB01FC01F999FECF06C0F2BD47
S1132E70E1BDF89A319600B40D9241505040B8F734
S1092E800895F894FFCF51
S10B2E860101FFFF010103003B
S9030000FC
