:100000000C942A020C943A130C9473130C94091355
:100010000C949A0E0C94740E0C9447020C944702A4
:100020000C9447020C9447020C9447020C9447022C
:100030000C9447020C9413040C9447020C9447024E
:100040000C9449020C9447020C9447020C9447020A
:100050000C9447020C9447020C9447020C944702FC
:100060000C9447020C9447020C9447020C944702EC
:100070002044656661756C7473202053657421207B
:10008000006D56002053676C2050756C73652057C7
:10009000656C6420002044626C2050756C73652090
:1000A00057656C64200020204D616E75616C20578F
:1000B000656C642020200053657474696E6720535A
:1000C000617665642E2E2E00466F6F742020537764
:1000D0000053657474696E67205472696720546FA9
:1000E0002000536176652020202020202020202021
:1000F0002020002053676C2050756C736520576575
:100100006C6420002044626C2050756C736520572D
:10011000656C64200020204D616E75616C20576510
:100120006C6420202000466F6F742D7377697463B0
:1001300068205472696700436F6E74616374204471
:10014000657420547269670053657474696E672022
:1001500053617665642E2E2E00436F6E74696E7542
:100160006F7573204D6F64652100496E76616C690F
:10017000642020666F720053617665202020202065
:100180002020202020202000466F6F742D73776977
:10019000746368205472696700436F6E746163749E
:1001A000204465742054726967006D73006D73009C
:1001B0006D73006D7300536176696E672056616CD4
:1001C0007565202E2E2E0020204E6F204368616E14
:1001D00067652E2E2E20200053657474696E67208B
:1001E00044656661756C7421002020202020202049
:1001F00020202020457869742000205361766520F6
:100200002020202020457869742000505553482034
:100210002020202020424F544800526573657420EE
:1002200044656661756C7473202D00474F2E2E2E29
:10023000202020202056696577005365742057657B
:100240006C642054797065202D2000474F2E2E2E8F
:100250002020202020566965770053657420547251
:100260006967204C6576656C202D00474F2E2E2E39
:100270002020202020566965770053657420547231
:1002800069672054797065202D2000474F2E2E2E4F
:100290002020202020566965770053657420547211
:1002A00069672044656C6179202D00474F2E2E2E02
:1002B000202020202056696577005365742049501E
:1002C000204C656E677468202D2000474F2E2E2E1F
:1002D0002020202020566965770053657420503116
:1002E000204C656E677468202D2000474F2E2E2EFF
:1002F00020202020205669657700536574205030F7
:10030000204C656E677468202D20004653004354CE
:100310000020325F502020202020202052554E20E7
:10032000200020325F5020202020202020574149EB
:1003300054200020325F5020202044495341424C39
:100340004544200020325F50202020202054524974
:10035000472744200020325F5020202020202020EA
:1003600052445921200020315F502020202020209D
:100370002052554E20200020315F50202020202088
:10038000202057414954200020315F502020204434
:10039000495341424C4544200020315F50202020E9
:1003A0002020545249472744200020315F5020200C
:1003B0002020202020524459212000204D414E2051
:1003C000202020202020574149542000204D414E1C
:1003D000202020202020204449532E2000204D4161
:1003E0004E20202020202020524459212000204D42
:1003F000414E2020202020202052554E2020005405
:100400005950453A202020205354415455533A0026
:1004100020202020202076312E3020202020202057
:10042000002D4D6963726F2057656C642050726FA8
:100430002D0020436865636B20427265616B6572B5
:100440002120004143204E6F74204465746563741D
:1004500065643A0011241FBECFEFD0E1DEBFCDBFEF
:1004600011E0A0E0B1E0ECE7FEE202C005900D92E1
:10047000A830B107D9F723E0A8E0B1E001C01D9290
:10048000A736B207E1F70E940A070C943C170C94B8
:1004900000001F920F920FB60F9211244F935F939B
:1004A0006F937F938F939F93AF93BF93809123011B
:1004B00090912401A0912501B09126010196A11DE2
:1004C000B11D8093230190932401A0932501B09343
:1004D000260180911401882321F1809123019091BC
:1004E0002401A0912501B091260140911001509165
:1004F00011016091120170911301841B950BA60BE1
:10050000B70B40910C0150910D0160910E0170915B
:100510000F01481759076A077B0718F41092140156
:100520005E98BF91AF919F918F917F916F915F91F5
:100530004F910F900FBE0F901F90189510922201AF
:1005400010921E01E1E8F0E08081887F80831092A4
:1005500085001092840080ED92E090938900809352
:10056000880088E08083B19A82E080936F009AEFE0
:1005700095BD16BC9FE897BD84BDA99A80936E0077
:10058000089585E085BD81E080931501089560910F
:1005900023017091240180912501909126010895F5
:1005A0002AE030E040E050E00E94B316211531050A
:1005B0004105510549F020930C0130930D01409302
:1005C0000E0150930F010CC081E090E0A0E0B0E07C
:1005D00080930C0190930D01A0930E01B0930F0135
:1005E00081E0809314018091230190912401A091D6
:1005F0002501B09126018093100190931101A093E1
:100600001201B09313015E9A08950F931F93CF9335
:10061000DF93FC01868180931E0180911E01811170
:100620003BC0878180931F0100811181C2E3D0E02C
:10063000C801BE010E949F167093190160931801B2
:1006400024813581200F311FC901BE010E949F16F0
:1006500070931D0160931C0182819381820F931F0F
:10066000BE010E949F1670931B0160931A011092A5
:100670002101109220010E949C16882369F081E0DC
:10068000809322011092170110921601DF91CF91F1
:100690001F910F910C94EC05DF91CF911F910F9159
:1006A0000895809116019091170190930B0180930A
:1006B0000A0140911F01423009F06FC080911E0174
:1006C000813041F118F08230B9F15CC00E94A8136A
:1006D00081115F9A80911601909117012091080174
:1006E00030910901820F931F20910A0130910B0173
:1006F000821B930B909309018093080120911801AC
:1007000030911901280F391F3093210120932001C6
:1007100081E035C05F9880911C0190911D0120916E
:10072000080130910901820F931F9093210180935A
:10073000200140931E0131C00E94A81381115F9ACD
:1007400080911601909117012091080130910901C3
:10075000820F931F20910A0130910B01821B930B92
:10076000909309018093080120911A0130911B0197
:10077000280F391F309321012093200183E08093BB
:100780001E010BC08FEF9FEF9093210180932001FA
:100790005F9810921E011092220180911F018130FA
:1007A000A9F580911E01811126C00E94A813811114
:1007B0005F9A809116019091170120910801309164
:1007C0000901820F931F20910A0130910B01821BB6
:1007D000930B9093090180930801209118013091A7
:1007E0001901280F391F309321012093200181E046
:1007F00080931E010BC08FEF9FEF90932101809398
:1008000020015F9810921E01109222018091220116
:10081000811108C05F9885E080931E011092090144
:100820001092080108951F920F920FB60F92112493
:100830002F933F934F935F936F937F938F939F93E8
:10084000AF93BF93EF93FF9380911601909117019F
:100850009C012F5F3F4F3093170120931601209189
:100860002001309121018217930731F480912201F8
:10087000813011F40E945103FF91EF91BF91AF912C
:100880009F918F917F916F915F914F913F912F91A8
:100890000F900FBE0F901F901895CF93C82F809187
:1008A0001E01882341F080911E01843021F0809147
:1008B0001E01853049F40E949C16882341F0C093A4
:1008C0001E0181E090E005C08FEF9FEF02C080E045
:1008D00090E0CF91089580911E0108951092220119
:1008E00085E080931E01E1E8F0E08081887F8083CD
:1008F0005F98089518B817B81598169A00C0179AF7
:1009000087E08A95F1F700C086B1179897E09A952D
:10091000F1F700C087FDF3CF8FEF87B90895CF932C
:10092000DF931F92CDB7DEB789830E947A041598B2
:100930001698898188B900C0179A87E08A95F1F7DF
:1009400000C017980F90DF91CF910895CF93DF9358
:100950001F92CDB7DEB789830E947A04159A169844
:10096000898188B900C0179A87E08A95F1F700C09D
:1009700017980F90DF91CF910895613011F090E0BA
:1009800001C090E420912B0130912C01280F311DE2
:100990002832310534F020912B0130912C0128525E
:1009A00004C020912B0130912C01280F822F890F38
:1009B00080680C948F04EF92FF920F931F93CF9354
:1009C000DF931F92CDB7DEB71FB7F894082F7C01D5
:1009D0008E2D801B861750F4F701849169830E9445
:1009E000A604FFEFEF1AFF0A6981F2CF1FBF0F9035
:1009F000DF91CF911F910F91FF90EF9008950F938A
:100A00001F93CF93DF93EC01162F0130A9F048F02C
:100A10000230F1F480912B0190912C01840F911DF3
:100A200012C080912B0190912C014097820F911D53
:100A300097FF10C088960EC080912B0190912C01D9
:100A40004096820F911D8832910524F0889702C04C
:100A500080E090E0622F0E94BD04612FCE01DF9103
:100A6000CF911F910F910C94DB04CF92DF92FF92F4
:100A70000F931F93CF93DF931F92CDB7DEB7182F3D
:100A8000062F842F622F99830E94BD04F12EC12E60
:100A90009981D92E8C2D8F19801730F4F601819110
:100AA0006F010E94A604F6CF0F90DF91CF911F91A6
:100AB0000F91FF90DF90CF900895CF93DF93D82FC1
:100AC000C0E0CD17D9F088E10E948F0420912B015E
:100AD00030912C01273231055CF420912B013091AB
:100AE0002C012F5F3F4F30932C0120932B0104C02A
:100AF00010922C0110922B01CF5FE3CFDF91CF91A9
:100B000008950F931F93CF93DF93082F10E0C7E250
:100B1000D0E01017D9F08CE10E948F0420912B01B6
:100B200030912C01121613065CF420912B013091A8
:100B30002C012150310930932C0120932B0104C04A
:100B4000D0932C01C0932B011F5FE3CFDF91CF9196
:100B50001F910F91089582958F7080932A011092B2
:100B60002901809129018031A8F481E00E9481054A
:100B700080912A01882341F0E9EFF0E03197F1F705
:100B800000C000008150F6CF809129018F5F8093D3
:100B90002901E7CF089582958F70809328011092E4
:100BA0002701809127018031A8F481E00E945D0532
:100BB00080912801882341F0E9EFF0E03197F1F7C7
:100BC00000C000008150F6CF809127018F5F809395
:100BD0002701E7CF0895089581E00E948F041092C5
:100BE0002C0110922B01089580E180932D0184E067
:100BF00080932E010D9A0F9A0E9A8FEF87B9179A4C
:100C000089EF90E00197F1F700C00000179883EC9E
:100C100099E00197F1F700C00000179A89EF90E082
:100C20000197F1F700C00000179883EF91E001975A
:100C3000F1F700C00000179A89EF90E00197F1F7F3
:100C400000C00000179883EF91E00197F1F700C012
:100C5000000088E30E948F0486E00E948F04809148
:100C60002E0188600E948F0480E00E94A6040C94EC
:100C7000EC058FE090E00E94FE168F3F2FEF920769
:100C800011F48CEA9DE090935C0380935B038DE00C
:100C900090E00E94FE168F3F2FEF920711F48AEF2B
:100CA00090E090935E0380935D038BE090E00E9460
:100CB000FE168F3F2FEF920711F48CE291E0909394
:100CC000600380935F0389E090E00E94FE168F3FEF
:100CD0002FEF920711F484E690E0909362038093E3
:100CE000610387E090E00E94FE168F3F2FEF92078E
:100CF00011F484E690E0909364038093630385E0AD
:100D000090E00E94FE168F3F2FEF920719F080931C
:100D1000650302C01092650383E090E00E94FE1616
:100D20008F3F2FEF920789F08093660381110FC0E8
:100D300080916503882359F01092650360E070E0AC
:100D400085E090E00E94161702C01092660381E0D1
:100D500090E00E94FE168F3F2FEF920711F488E873
:100D600093E19093300180932F0180E090E00E9406
:100D7000F61680935A03089584B1806B84B926983F
:100D80002E9A8CE58CBD8DB581608DBD0E949E0232
:100D90000E943A0F0E94F40581B1877E81B982B129
:100DA000886182B984B18C7F84B985B1836085B94B
:100DB00052985A9A53985B9A22982A9A5F98579A0F
:100DC0005E98569A5C98549A80917E0083608093D6
:100DD0007E000E94C1020E9439062C9A249A85B195
:100DE00085B984B184B92C9880E18EBD0DB407FE1D
:100DF000FDCF1EBC0DB407FEFDCF2C9A0E94E80863
:100E00000E94D11364E670E080E090E00E94D0027E
:100E1000789408950E94BC060E9441112FEB87E24E
:100E200099E0215080409040E1F700C0000081E04F
:100E30000E94CD0E0E94EC050E9441110E945D149B
:100E4000FBCF0F930E94EC058091650302E020E048
:100E500040E060E1813019F487E391E002C086E26E
:100E600091E00E94FF042FE78AE196E02150804044
:100E70009040E1F700C000000E94EC0580E090E0A7
:100E80000F9108950F930E94EC05809166038111E4
:100E900008C002E020E040E060E186EA90E00E94C5
:100EA000FF0480916603823041F402E020E040E0DC
:100EB00060E185E990E00E94FF0480916603813043
:100EC00041F402E020E040E060E184E890E00E942C
:100ED000FF042FE78AE196E0215080409040E1F73F
:100EE00000C000000E94EC0580E090E00F910895A2
:100EF0000F93CF93DF9383E791E00E946610809178
:100F00006503813019F4C1E0D0E002C0C0E0D1E057
:100F100083E791E00E94B40FDC17B1F002E020E01B
:100F200040E060E1C13019F489E991E002C088E84D
:100F300091E00E94FF0402E021E040E060E187E7E9
:100F400091E00E94FF04DC2F80917D01813051F4FB
:100F500090917F01992311F0C827C17083E791E038
:100F60000E94661080917301813091F68091740126
:100F700081508230F8F4D13011F5809166038111EF
:100F80001EC00E94EC0502E020E042E06CE08AE630
:100F900091E00E94FF0421E040E060E189E591E0FA
:100FA0000E94FF042FE78AE196E0215080409040A4
:100FB000E1F71EC083E791E00E946610A9CFD093AD
:100FC00065036D2F70E085E090E00E9416170E9487
:100FD000EC0502E020E040E060E188E491E00E945E
:100FE000FF042FE986E891E0215080409040E1F72E
:100FF00000C000000E94EC0580E090E0DF91CF91FE
:101000000F9108950F9383E791E00E9466108AEF95
:1010100090E090935E0380935D038CE291E0909367
:10102000600380935F0384E690E090936203809373
:10103000610390936403809363031092650310929D
:1010400066030E94EC0502E020E040E060E180E7FA
:1010500090E00E94FF042FE986E891E02150804053
:101060009040E1F700C000000E94EC0580E090E0B5
:101070000F9108950F93CF93DF9383E791E00E9440
:10108000661080916603823029F0813029F0C0E03B
:10109000D2E004C0C2E001C0C1E0D0E083E791E04B
:1010A0000E94B40FDC1729F1C11107C002E020E053
:1010B00040E060E185E191E011C0C23039F402E026
:1010C00020E040E060E184E091E008C0C13041F4FC
:1010D00002E020E040E060E183EF90E00E94FF0446
:1010E00002E021E040E060E182EE90E00E94FF0437
:1010F000DC2F80917D01813089F480917F018823EC
:1011000049F0CC2321F0C13021F4C2E003C0C1E09A
:1011100001C0C0E083E791E00E94661080917301F6
:10112000813009F0BBCF809174018150823038F555
:10113000D0936603D11128C00E94EC0502E020E0A4
:1011400040E060E181ED90E00E94FF0421E044E096
:1011500068E088EC90E00E94FF042FE78AE196E0C7
:10116000215080409040E1F700C0000010926503DC
:1011700060E070E083E090E00E94161705C083E70E
:1011800091E00E9466108ACF60E070E085E090E018
:101190000E9416170E94EC0502E020E040E060E1AA
:1011A00087EB90E00E94FF042FE986E891E0215050
:1011B00080409040E1F700C000000E94EC0580E014
:1011C0000E944D0480E090E0DF91CF910F9108954F
:1011D0002F923F924F925F926F927F928F929F9247
:1011E000AF92BF92CF92DF92EF92FF920F931F9335
:1011F000CF93DF9300D01F92CDB7DEB784E4882E63
:1012000081E0982E4FEFD4014C9395E4A92E91E004
:10121000B92E82E0F501808326E4C22E21E0D22E91
:101220008AEF92E0D6018D939C9334E5E32E31E072
:10123000F32E80E1F701808308E411E08BEE92E069
:10124000D8018D939C938EE0E5E5F1E080838DE5F8
:1012500093E0A6E5B1E08D939C935AE4652E51E0AE
:10126000752E84EE9CE0F301918380836CE4462E1E
:1012700061E0562E88E39EE0D2018D939C93C401D9
:101280004B830E94A40E8093430120900001312CD7
:101290000E94C702E0910001D101AE57BE4F8E2FD0
:1012A0008295807F862B8C93209041013090420163
:1012B00081E08E0F80930001F0E0EE57FE4F8081B9
:1012C000F101858B80914301D4018C9383E0F5017A
:1012D00080838AED92E0D6018D939C9380E1F701A3
:1012E00080838BEC92E0D8018D939C938EE0E5E5B2
:1012F000F1E080838FE593E0A6E5B1E08D939C93C8
:101300008AE09DE0F3019183808382E49EE0D20134
:101310008D939C93C4010E94A40E8093430120915D
:10132000000130E029833A830E94C702E091000166
:1013300029813A81D901AE57BE4F8E2F8295807F89
:10134000862B8C9381E08E0F80930001F0E0EE57A6
:10135000FE4F8081F101858B80914301D4018C93F4
:1013600084E0F50180838AEB92E0D6018D939C9313
:1013700080E1F70180838BEA92E0D8018D939C9302
:101380008EE0E5E5F1E0808381E693E0A6E5B1E05B
:101390008D939C9380E39DE0F301918380838CE4A3
:1013A0009EE0D2018D939C93C4010E94A40E809371
:1013B00043012091000130E029833A830E94C70253
:1013C000E091000129813A81D901AE57BE4F8E2F9D
:1013D0008295807F862B8C9381E08E0F8093000115
:1013E000F0E0EE57FE4F8081F101858B8091430143
:1013F000D4018C9385E0F50180838AE992E0D601DF
:101400008D939C9380E1F70180838BE892E0D80173
:101410008D939C938EE0E5E5F1E08083E3E6F3E0D5
:10142000A6E5B1E0ED93FC9386E59DE0D3018D93B5
:101430009C9386E59EE0F20191838083C4010E9423
:10144000A40E809343012091000130E029833A8368
:101450000E94C702E091000129813A81D901AE576B
:10146000BE4F8E2F8295807F862B8C9381E08E0FCE
:1014700080930001F0E0EE57FE4F8081D101559638
:101480008C9380914301F401808386E0D5018C9395
:101490008AE792E0F60191838083E0E1D701EC9343
:1014A0008BE692E0D8018D939C938EE0E5E5F1E028
:1014B0008083E3E6F3E0A6E5B1E0ED93FC9388E7F3
:1014C00097E0D3018D939C9381E297E0F2019183A1
:1014D0008083C4010E94A40E8093430120910001E7
:1014E00030E029833A830E94C702E09100012981FC
:1014F0003A81D901AE57BE4F8E2F8295807F862BC1
:101500008C9381E08E0F80930001F0E0EE57FE4F48
:101510008081D10155968C9380914301F4018083A1
:1015200087E0D5018C938AE592E0F6019183808370
:10153000E0E1D701EC938BE492E0D8018D939C938A
:101540008EE0E5E5F1E080838AE593E0A6E5B1E091
:101550008D939C938CE79DE0F3019183808380E6DB
:101560009EE0D2018D939C93C4010E94A40E8093AF
:1015700043012091000130E029833A830E94C70291
:10158000E091000129813A81D901AE57BE4F8E2FDB
:101590008295807F862B8C9381E08E0F8093000153
:1015A000F0E0EE57FE4F8081F101858B8091430181
:1015B000D4018C9388E0F50180838AE392E0D60120
:1015C0008D939C9380E1F70180838BE292E0D801B8
:1015D0008D939C938EE0E5E5F1E08083E3E6F3E014
:1015E000A6E5B1E0ED93FC938AE398E0D3018D93F7
:1015F0009C9382E497E0F20191838083C4010E946E
:10160000A40E809343012091000130E029833A83A6
:101610000E94C702E091000129813A81D901AE57A9
:10162000BE4F8E2F8295807F862B8C9381E08E0F0C
:1016300080930001F0E0EE57FE4F8081D101559676
:101640008C9380914301F40180834B81D5014C93AD
:101650008AE192E0F60191838083E0E1D701EC9387
:101660008BE092E0D8018D939C938EE0E5E5F1E06C
:101670008083D3011D921C92F2011182108282E0BC
:1016800098E090934F0180934E01C4010E94A40EF4
:10169000809343010091000110E00E94C702E09195
:1016A0000001D801AE57BE4F8E2F8295807F862BCA
:1016B0008C9381E08E0F80930001F0E0EE57FE4F97
:1016C0008081D10155968C9380E090E00F900F902F
:1016D0000F90DF91CF911F910F91FF90EF90DF90CE
:1016E000CF90BF90AF909F908F907F906F905F90C2
:1016F0004F903F902F9008953F924F925F926F923C
:101700007F928F929F92AF92BF92CF92DF92EF9291
:10171000FF920F931F93CF93DF936C015B01EA015C
:101720004901DC018D919C918417950728F09093D5
:10173000400180933F0104C05093400140933F011A
:1017400080913F0190914001019690933E018093DA
:101750003D0110923C0110923B01E12CF12CE8E09C
:101760003E2E602E712C2401BFEF4B1A5B0A809134
:101770003B018111F1C083E791E00E94B40F009119
:101780003F011091400180913D0190913E01081769
:10179000190709F469C010933E0100933D0140E12F
:1017A00050E060E270E083E691E00E94D5164AE0E6
:1017B0006AE571E0C8010E94DC16EAE5F1E00190FB
:1017C0000020E9F73197EA55F1408E2F8695332DA9
:1017D000381B432F4E0F232F622F70E06D597E4F21
:1017E000822F831B90E0865A9E4FDC018C91DB0197
:1017F0008C932F5F2413F0CF10923A01209339017C
:10180000E093380180913C0102E021E040E060E19A
:10181000882319F08AEF91E002C089EE91E00E94DE
:10182000FF0480913F0190914001C817D90738F417
:1018300061E087E00E94BD048EE10E94A6048091D1
:101840003F01909140018A159B0538F461E088E0E2
:101850000E94BD048DE10E94A60420E040E060E10A
:1018600083E691E00E94350580917D01813061F52C
:1018700020917F01222331F180917E0181110CC0E2
:1018800080913F01909140018A159B0510F4860DCF
:10189000971D2150C9F70DC08130A1F480913F01FF
:1018A00090914001C817D90710F486199709215063
:1018B000C9F79093400180933F0110927F0181E02E
:1018C00080933C0110927D0180917301813009F079
:1018D0004ECF80917401813049F490913C0199235D
:1018E00029F080933B01EE24E394F12C20917501C3
:1018F000213059F4F6018081918190933E018093CB
:101900003D0120933B01E12CF12C80917601813047
:1019100001F50E94EC0502E020E040E060E188ED86
:1019200091E00E94FF04FFE926E881E0F1502040A9
:101930008040E1F700C000000E94EC059092400159
:1019400080923F0150923E0140923D0181E08093A0
:101950003C01109273010BCF0E94EC0502E020E0E5
:1019600040E060E191E0E916F10419F087EC91E0C4
:1019700002C086EB91E00E94FF04AFE9B6E8E1E027
:10198000A150B040E040E1F700C000000E94EC052B
:101990000E94560F80913D0190913E01D6018D939A
:1019A0009C93C701DF91CF911F910F91FF90EF9012
:1019B000DF90CF90BF90AF909F908F907F906F906F
:1019C0005F904F903F9008950F9380915D039091A9
:1019D0005E03909381018093800102E32AEF30E05F
:1019E00042E350E060E177E280E891E00E947C0B06
:1019F000892B61F0609180017091810170935E0389
:101A000060935D038DE090E00E94161780E090E007
:101A10000F9108950F9380915F03909160039093CD
:101A200081018093800102E32CE231E042E350E047
:101A300060E177E280E891E00E947C0B892B61F005
:101A400060918001709181017093600360935F03E6
:101A50008BE090E00E94161780E090E00F910895CF
:101A60000F93809161039091620390938101809321
:101A7000800102E324E630E042E350E068EE73E0E8
:101A800080E891E00E947C0B892B61F060918001DD
:101A900070918101709362036093610389E090E02B
:101AA0000E94161780E090E00F9108950F938091A7
:101AB000610390916203909381018093800102E31E
:101AC00024E630E042E350E068EE73E080E891E025
:101AD0000E947C0B892B61F06091800170918101E3
:101AE000709364036093630387E090E00E9416178D
:101AF00080E090E00F9108950F9380915A0320E1C8
:101B0000829FC0011124909381018093800100E1A4
:101B100020E038E040E450E060E070E180E891E0EF
:101B20000E947C0B892B91F1609180017091810161
:101B3000F4E076956795FA95E1F760935A0380E0B3
:101B400090E00E94041780915A0320E1829FC00117
:101B5000112490933401809333019C0122273F701C
:101B600030933201809331012C9880913201806151
:101B70008EBD0DB407FEFDCF809131018EBD0DB439
:101B800007FEFDCF2C9A2B9A00002B9880E090E066
:101B90000F910895EF92FF920F931F93CF93DF93CE
:101BA0007B01142FFC01C081D181D0938101C093AE
:101BB000800140E150E060E270E083E691E00E9445
:101BC000D5164AE06AE571E0CE010E94DC16EAE52E
:101BD000F1E001900020E9F73197EA55F140E093F8
:101BE0003701212F30E02E0F311D35952795319586
:101BF00021953109285F9E2F322F3E0F822FE82F2B
:101C0000F0E0ED59FE4FA82FA21BB0E0A65ABE4F40
:101C10004C9140838F5F8313F2CF109237018093F2
:101C20003601909335010E94EC0520E040E060E130
:101C300083E691E00E943505409136014F5F02E056
:101C400020E0612FC7010E94FF04FFE72AE186E040
:101C5000F15020408040E1F700C000000E94560F84
:101C6000DF91CF911F910F91FF90EF900C94EC05B5
:101C700042E063EB71E08DE593E00E94CA0D80E0E5
:101C800090E0089542E060EB71E08FE593E00E9400
:101C9000CA0D80E090E0089542E06DEA71E081E6CF
:101CA00093E00E94CA0D80E090E0089542E06AEA65
:101CB00071E083E693E00E94CA0D80E090E0089511
:101CC00080915A0320E1829FC001112490938101E9
:101CD0008093800142E061E870E080E891E00E943A
:101CE000CA0D80E090E008951F920F920FB60F92F8
:101CF00011248F939F9383B183708093AC0181E013
:101D00008093AF018091AD0191E0980F9093AD0168
:101D100090913703981738F48091AE018F5F8093CC
:101D2000AE011092AD019F918F910F900FBE0F9059
:101D30001F9018951F920F920FB60F9211240F90BB
:101D40000FBE0F901F901895CF93DF93FC018091E9
:101D5000040196E1899FE0011124C354DE4F96E10E
:101D6000DE0101900D929A95E1F78C8B91E0980F2E
:101D700090930401DF91CF910895803158F49091B0
:101D80000401891738F426E1829FC001112483548D
:101D90009E4F089580E090E008958F3F41F090912C
:101DA0000401891720F48093030190E008958FEFD8
:101DB0009FEF08950F93CF93DF938F3F11F1909191
:101DC00004018917F0F496E1899FF0011124E3548E
:101DD000FE4F80810E94BD0EEC010097A9F000E04B
:101DE00020E040E068898A819B810E94FF0421E015
:101DF00041E069898C819D810E94FF0481E090E02F
:101E000005C08FEF9FEF02C08EEF9FEFDF91CF9164
:101E10000F9108950F93CF93DF938F3F11F190911E
:101E200004018917F0F496E1899FF0011124E3542D
:101E3000FE4F81810E94BD0EEC010097A9F001E0E8
:101E400020E040E068898A819B810E94FF0421E0B4
:101E500041E069898C819D810E94FF0481E090E0CE
:101E600005C08FEF9FEF02C08EEF9FEFDF91CF9104
:101E70000F91089582E080933703ECE6F0E08081D3
:101E800082608083E8E6F0E08081826080830E9447
:101E9000C7026059784E8F4F9F4F60933303709302
:101EA0003403809335039093360308950E94C7024C
:101EB0006059784E8F4F9F4F609333037093340374
:101EC000809335039093360308958091050108951A
:101ED0000F931F930E94C7020091A8011091A901BE
:101EE0002091AA013091AB0106171707280739077F
:101EF000C0F58091A7019091A501890F8093A7015A
:101F00000E94EC0560E08091A7010E94BD048FEF64
:101F10000E94A6049091A70161E08FE0891B0E94B6
:101F2000BD048FEF0E94A6048091A7018F3019F4A1
:101F30008FEF9FEF04C0811106C081E090E0909385
:101F4000A6018093A5010E94C7026B5F7F4F8F4F50
:101F50009F4F6093A8017093A9018093AA01909369
:101F6000AB011F910F910895CF92DF92EF92FF92F4
:101F70000F931F93CF93DF93EC010E94C7026093EE
:101F8000A1017093A2018093A3019093A4012091D9
:101F9000AF012223A9F01092AF012091AC0120FFE4
:101FA0000FC02091AC0121FF03C021E02B8701C0AD
:101FB0001B862091AE012C8721E02A871092AE016A
:101FC00040B148714D835C81451709F475C00E819D
:101FD0001F81288539856B017C01C01AD10AE20A6C
:101FE000F30A97018601C0929D01D0929E01E09272
:101FF0009F01F092A0016E837F8388879987583074
:1020000041F118F4552359F057C05031D9F15831E6
:1020100009F052C019821A821B8218824DC01B829D
:10202000053011052105310508F444C081E08B839A
:10203000083C110521053105E8F180E9C81681E069
:10204000D806E104F10410F482E001C083E08B8340
:1020500031C01A82053011052105310558F181E0A2
:102060008A83083C11052105310520F180E9C81655
:1020700081E0D806E104F10410F482E001C083E0BD
:102080008A8318C01982053011052105310590F0A9
:1020900081E08983083C11052105310558F080E96C
:1020A000C81681E0D806E104F10410F482E001C012
:1020B00083E0898381E088834C83DF91CF911F91F6
:1020C0000F91FF90EF90DF90CF900895FC01128662
:1020D0001486108211821282138208950F93CF9377
:1020E000C82F0E946B04809394010E9499168093DC
:1020F00093019091940180919201981303C0CC2395
:1021000009F4B9C002E020E040E060E18FEF93E025
:102110000E94FF048091660381112AC0809194017E
:10212000843039F421E040E060E18EEE93E00E94DB
:10213000FF048091940181110FC00E949C1602E05F
:1021400021E040E060E1882319F08DED93E002C0CA
:102150008CEC93E00E94FF0480919401853041F45F
:1021600002E021E040E060E18BEB93E00E94FF049D
:1021700080916603813091F580919401882311F05C
:10218000CC23F9F00E949C168823A1F08091930142
:10219000882349F0833010F502E021E040E060E15F
:1021A00089E993E019C002E021E040E060E18AEAB9
:1021B00093E012C002E021E040E060E188E893E0B3
:1021C0000BC002E021E040E060E1853019F487E7D0
:1021D00093E002C086E693E00E94FF0480916603CC
:1021E000823091F580919401882311F0CC23F9F08D
:1021F0000E949C168823A1F080919301882349F0C6
:10220000833010F502E021E040E060E184E493E0F7
:1022100019C002E021E040E060E185E593E012C0F2
:1022200002E021E040E060E183E393E00BC002E0E4
:1022300021E040E060E1853019F482E293E002C0E1
:1022400081E193E00E94FF048091650302E021E0B8
:1022500046E062E0813019F48EE093E002C08BE04A
:1022600093E00E94FF048091940180939201CF91AA
:102270000F910C94560FCF910F91089581E00C941B
:102280006E100F931F938091030190910201981398
:1022900010929C01809302010E94C70200913303B7
:1022A0001091340320913503309136030617170738
:1022B0002807390768F483E00E94EB0510920501B6
:1022C00081E080939B0110929C010E94680F06C0E0
:1022D00080E00E94EB0581E08093050180EB91E0B6
:1022E0000E94B40F809103019FEF980F9E3F08F06A
:1022F00037C191E090939B0190919C01911149C04D
:102300000E94BD0E90939A01809399010E94EC0562
:10231000A091030116E11A9FD0011124A354BE4FCE
:1023200002E020E040E050966C91509712968D911B
:102330009C9113970E94FF04E09103011E9FF001FE
:102340001124E354FE4F21E041E0618984819581AD
:102350000E94FF04E0919901F0919A0181818F3FE1
:1023600039F061E088E00E94BD048EE70E94A60477
:10237000E0919901F0919A0180818F3F39F061E0FD
:1023800087E00E94BD048FE70E94A60481E080934D
:102390009C018091B001813009F06CC00E94DE1375
:1023A0008091B101813071F4E0919901F0919A012D
:1023B0000680F781E02D309709F0099580EB91E0D8
:1023C0000E9466108091B201813071F4E091990110
:1023D000F0919A010084F185E02D309709F009957C
:1023E00080EB91E00E9466108091B301813071F41E
:1023F000E0919901F0919A010284F385E02D3097E4
:1024000009F0099580EB91E00E9466108091B1017E
:10241000823071F4E0919901F0919A010484F5857C
:10242000E02D309709F0099580EB91E00E9466104D
:102430008091B201823071F4E0919901F0919A019A
:102440000684F785E02D309709F0099580EB91E03F
:102450000E9466101092B00110929C010E94C70267
:1024600060939501709396018093970190939801E2
:102470000E94560F8091BA01882309F44CC08091C4
:10248000BC018823B1F18091BB01811117C08091FB
:1024900003010E940A0F019759F488EC0E94CB05B2
:1024A000E0919901F0919A0181810E94CD0E06C0C0
:1024B00062E370E080E090E00E94D0028091BB0176
:1024C0008130B9F4809103010E94DA0E019759F42A
:1024D00088EC0E94AB05E0919901F0919A0180810E
:1024E0000E94CD0E06C062E370E080E090E00E94A2
:1024F000D00280EB91E00E94661010929C010E9435
:10250000C702609395017093960180939701909311
:1025100098010E94560F0E94C702009195011091E8
:1025200096012091970130919801601B710B820BED
:10253000930B6D3271408105910508F467C080915D
:1025400003018093010180E00E94CD0E0E943E11A4
:1025500062E370E080E090E01F910F910C94D00254
:102560008F3FF1F480919C0181111AC08091050187
:10257000882389F00E94EC0502E020E040E060E161
:1025800081E294E00E94FF0421E040E060E180E10C
:1025900094E00E94FF0481E080939C010E94DE137E
:1025A00080910301811132C080910501882339F0A7
:1025B0000E94ED1380919B010E946E1002C00E9448
:1025C000DE138091BA01811104C08091B00188238B
:1025D000D9F080EB91E00E94661080910101811199
:1025E00001C081E0809303010E94C70260939501BE
:1025F0007093960180939701909398010E94DE1347
:1026000010929C010E94560F10929B011F910F91F6
:1026100008951F920F920FB60F9211242F933F939C
:102620004F935F936F937F938F939F93AF93BF93DA
:10263000EF93FF931A9903C0109206010AC00E94FB
:10264000560F80915903882319F081E08093060189
:10265000EA98FF91EF91BF91AF919F918F917F91F8
:102660006F915F914F913F912F910F900FBE0F90FF
:102670001F9018951F920F920FB60F9211242F934F
:102680003F934F935F936F937F938F939F93AF93FA
:10269000BF93EF93FF9399B181E080934F03109222
:1026A000500392FD03C010924E0302C080934E036C
:1026B0000E94C70260934A0370934B0380934C03BC
:1026C00090934D03FF91EF91BF91AF919F918F91A7
:1026D0007F916F915F914F913F912F910F900FBE1E
:1026E0000F901F9018951F920F920FB60F92112402
:1026F0002F933F934F935F936F937F938F939F930A
:10270000AF93BF93EF93FF934B9B03C010920601CF
:102710000EC00E94560F80916503811107C0809101
:102720005903882319F081E080930601E998FF910D
:10273000EF91BF91AF919F918F917F916F915F9139
:102740004F913F912F910F900FBE0F901F901895B2
:10275000CF92DF92EF92FF920E94C7026B017C0141
:102760008AE0C80ED11CE11CF11C80914F0381113D
:1027700007C00E94C702C616D706E806F906A8F7E2
:1027800080914F03882321F010924F0381E004C011
:1027900081E08093500380E0FF90EF90DF90CF9036
:1027A0000895E9E6F0E08081816380838DB38760DE
:1027B0008DBB10925903109206010895CF9380911A
:1027C0005903882341F0CFB7F8940E946E04109209
:1027D00059035C98CFBFCF91089580915D0390918C
:1027E0005E03C2978F3D964208F055C080915F030B
:1027F00090916003C2978F3D964208F04FC0809140
:10280000610390916203C297873B934008F049C0EF
:102810008091630390916403C297873B934008F0D3
:1028200043C080916603833008F041C08091590312
:10283000811140C04FB7F89480915A0320E1829FE4
:10284000C001112490933B0380933A039C012227FB
:102850003F7030933903809338032C98809139036B
:1028600080618EBD0DB407FEFDCF809138038EBD13
:102870000DB407FEFDCF2C9A2B9A00002B9883E015
:1028800080935903809181008560809381004FBFC0
:102890000E943E110FC08FEF9FEF08958EEF9FEFC4
:1028A00008958DEF9FEF08958CEF9FEF08958BEFC4
:1028B0009FEF089581E090E008950F931F930E9489
:1028C000C702609346037093470380934803909335
:1028D000490380910601811117C08091570381112E
:1028E00013C080916503813039F4809159038823A6
:1028F00059F05C9AEA9A08C0811106C08091590388
:10290000882311F05C98E99A80910601813009F0E2
:10291000C7C010916503112309F447C0113009F0B5
:10292000BBC080914503811121C00E943E1180915E
:102930006303909164036AE070E00E949F168091A7
:10294000460390914703A0914803B0914903860F35
:10295000971FA11DB11D8093410390934203A09343
:102960004303B0934403109345034DC01A9B54C0D6
:102970004091460350914703609148037091490389
:102980008091410390914203A0914303B09144038D
:1029900084179507A607B70708F082C05C9882E005
:1029A000809306011092450372C080914503811106
:1029B00031C00E943E118091660300914603109140
:1029C00047032091480330914903811105C00B5FF3
:1029D0001F4F2F4F3F4F0CC08091630390916403B2
:1029E0006AE070E00E949F16060F171F211D311D1F
:1029F0000093410310934203209343033093440315
:102A000081E08093450364E670E080E090E00E94FE
:102A1000D00246C04B9B0DC0109245031092060198
:102A200064E670E080E090E00E94D0020E943E11D7
:102A300037C040914603509147036091480370911D
:102A400049038091410390914203A0914303B091C7
:102A5000440384179507A607B70710F55C9882E032
:102A6000809306011092450380914603909147039D
:102A7000A0914803B0914903C296A11DB11D809356
:102A8000410390934203A0934303B093440362E352
:102A900070E080E090E0BBCF1092590310924503A4
:102AA00030910601323009F0A6C02091660322233E
:102AB00021F0233008F081C052C04B9942C0809170
:102AC0005903882309F43FC04091460350914703BE
:102AD00060914803709149038091410390914203B2
:102AE000A0914303B091440384179507A607B70745
:102AF000D8F465E070E080E090E00E94D002809120
:102B0000460390914703A0914803B0914903C296B0
:102B1000A11DB11D8093410390934203A0934303F1
:102B2000B09344030E94560F80915703843091F074
:102B30000E94A813882371F05F9A84E08093570362
:102B400009C00E94A8135F9885E08093570383E033
:102B500080930601809157030E944D0434C08091F8
:102B60005D0390915E039093520380935103809193
:102B70005F0390916003909354038093530380917B
:102B80006103909162039093560380935503213023
:102B900009F0C9C02093580310925703809159033C
:102BA000882339F05C9881E593E00E9405030E9438
:102BB000560F83E08093060106C083E080930601F0
:102BC00085E080935703809106018330A1F48091C2
:102BD000460390914703A0914803B09149038C5953
:102BE0009F4FAF4FBF4F80933D0390933E03A09301
:102BF0003F03B093400380915703882311F0853041
:102C0000F9F40E94650F81111BC085E08093570382
:102C100083E0809306018091460390914703A09141
:102C20004803B09149038C599F4FAF4FBF4F8093DA
:102C30003D0390933E03A0933F03B0934003E99A72
:102C400080910601833009F047C00E946B048530F3
:102C500009F042C080916503813021F45C9A1A9991
:102C600009C005C0811108C04B9B04C081E080935E
:102C70003C0302C010923C0320913C038091460328
:102C800090914703A0914803B091490321110EC0D0
:102C9000AC01BD014C595F4F6F4F7F4F40933D03D7
:102CA00050933E0360933F037093400340913D0374
:102CB00050913E0360913F037091400348175907BC
:102CC0006A077B0748F4109206011092570380E0D0
:102CD0000E944D040E943E1180915003882331F1DF
:102CE0000E94DE1364E670E080E090E00E94D00273
:102CF0000E94EC0502E020E040E060E183E494E023
:102D00000E94FF0421E040E060E182E394E00E9441
:102D1000FF04809150038111FCCF0E94560F1F9138
:102D20000F910C94ED133093580336CF1F910F91F0
:102D30000895809106010895809159030895AA1B72
:102D4000BB1B51E107C0AA1FBB1FA617B70710F096
:102D5000A61BB70B881F991F5A95A9F780959095C8
:102D6000BC01CD010895A1E21A2EAA1BBB1BFD01D7
:102D70000DC0AA1FBB1FEE1FFF1FA217B307E4075A
:102D8000F50720F0A21BB30BE40BF50B661F771FB2
:102D9000881F991F1A9469F7609570958095909592
:102DA0009B01AC01BD01CF010895DC0101C06D9311
:102DB00041505040E0F70895BB27FB015527AA2753
:102DC000880F991FAA1FA41710F0A41B83955051B8
:102DD000B9F7A05DAA3308F0A95DA193009779F730
:102DE000B111B1931192CB010C941C17F999FECF3C
:102DF00092BD81BDF89A992780B50895A8E1B0E009
:102E000042E050E00C942E17262FF999FECF92BD88
:102E100081BDF89A019700B4021639F01FBA20BD9F
:102E20000FB6F894FA9AF99A0FBE08950196272FD3
:102E30000E9405170C940417DC01FC01672F7191A7
:102E40007723E1F7329704C07C916D937083629190
:102E5000AE17BF07C8F30895DC01CB01FC01F99957
:102E6000FECF06C0F2BDE1BDF89A319600B40D92D6
:0C2E700041505040B8F70895F894FFCF8F
:082E7C000101FFFF0101030049
:00000001FF
